{
  "_format": "hh-sol-artifact-1",
  "contractName": "FirmChainAbiProxy",
  "sourceName": "contracts/FirmChainAbiProxy.sol",
  "abi": [
    {
      "inputs": [
        {
          "internalType": "bytes32",
          "name": "p",
          "type": "bytes32"
        }
      ],
      "name": "decodeConfirmer",
      "outputs": [
        {
          "components": [
            {
              "internalType": "address",
              "name": "addr",
              "type": "address"
            },
            {
              "internalType": "uint8",
              "name": "weight",
              "type": "uint8"
            }
          ],
          "internalType": "struct Confirmer",
          "name": "",
          "type": "tuple"
        }
      ],
      "stateMutability": "pure",
      "type": "function"
    },
    {
      "inputs": [
        {
          "components": [
            {
              "internalType": "bytes32",
              "name": "prevBlockId",
              "type": "bytes32"
            },
            {
              "internalType": "bytes32",
              "name": "blockBodyId",
              "type": "bytes32"
            },
            {
              "internalType": "bytes32",
              "name": "confirmerSetId",
              "type": "bytes32"
            },
            {
              "internalType": "uint256",
              "name": "timestamp",
              "type": "uint256"
            },
            {
              "internalType": "bytes",
              "name": "sigs",
              "type": "bytes"
            }
          ],
          "internalType": "struct BlockHeader",
          "name": "header",
          "type": "tuple"
        }
      ],
      "name": "encode",
      "outputs": [
        {
          "internalType": "bytes",
          "name": "",
          "type": "bytes"
        }
      ],
      "stateMutability": "pure",
      "type": "function"
    },
    {
      "inputs": [
        {
          "components": [
            {
              "internalType": "address",
              "name": "addr",
              "type": "address"
            },
            {
              "internalType": "bytes",
              "name": "cdata",
              "type": "bytes"
            }
          ],
          "internalType": "struct Call[]",
          "name": "calls",
          "type": "tuple[]"
        }
      ],
      "name": "encodeBlockBody",
      "outputs": [
        {
          "internalType": "bytes",
          "name": "",
          "type": "bytes"
        }
      ],
      "stateMutability": "pure",
      "type": "function"
    },
    {
      "inputs": [
        {
          "components": [
            {
              "internalType": "address",
              "name": "addr",
              "type": "address"
            },
            {
              "internalType": "uint8",
              "name": "weight",
              "type": "uint8"
            }
          ],
          "internalType": "struct Confirmer",
          "name": "confirmer",
          "type": "tuple"
        }
      ],
      "name": "encodeConfirmer",
      "outputs": [
        {
          "internalType": "bytes32",
          "name": "",
          "type": "bytes32"
        }
      ],
      "stateMutability": "pure",
      "type": "function"
    },
    {
      "inputs": [
        {
          "components": [
            {
              "internalType": "address",
              "name": "addr",
              "type": "address"
            },
            {
              "internalType": "uint8",
              "name": "weight",
              "type": "uint8"
            }
          ],
          "internalType": "struct Confirmer",
          "name": "confirmer",
          "type": "tuple"
        }
      ],
      "name": "encodeConfirmerMem",
      "outputs": [
        {
          "internalType": "bytes32",
          "name": "",
          "type": "bytes32"
        }
      ],
      "stateMutability": "pure",
      "type": "function"
    },
    {
      "inputs": [
        {
          "components": [
            {
              "components": [
                {
                  "internalType": "bytes32",
                  "name": "prevBlockId",
                  "type": "bytes32"
                },
                {
                  "internalType": "bytes32",
                  "name": "blockBodyId",
                  "type": "bytes32"
                },
                {
                  "internalType": "bytes32",
                  "name": "confirmerSetId",
                  "type": "bytes32"
                },
                {
                  "internalType": "uint256",
                  "name": "timestamp",
                  "type": "uint256"
                },
                {
                  "internalType": "bytes",
                  "name": "sigs",
                  "type": "bytes"
                }
              ],
              "internalType": "struct BlockHeader",
              "name": "header",
              "type": "tuple"
            },
            {
              "components": [
                {
                  "internalType": "address",
                  "name": "addr",
                  "type": "address"
                },
                {
                  "internalType": "bytes",
                  "name": "cdata",
                  "type": "bytes"
                }
              ],
              "internalType": "struct Call[]",
              "name": "calls",
              "type": "tuple[]"
            }
          ],
          "internalType": "struct Block",
          "name": "bl",
          "type": "tuple"
        }
      ],
      "name": "getBlockBodyId",
      "outputs": [
        {
          "internalType": "bytes32",
          "name": "",
          "type": "bytes32"
        }
      ],
      "stateMutability": "pure",
      "type": "function"
    },
    {
      "inputs": [
        {
          "components": [
            {
              "internalType": "bytes32",
              "name": "prevBlockId",
              "type": "bytes32"
            },
            {
              "internalType": "bytes32",
              "name": "blockBodyId",
              "type": "bytes32"
            },
            {
              "internalType": "bytes32",
              "name": "confirmerSetId",
              "type": "bytes32"
            },
            {
              "internalType": "uint256",
              "name": "timestamp",
              "type": "uint256"
            },
            {
              "internalType": "bytes",
              "name": "sigs",
              "type": "bytes"
            }
          ],
          "internalType": "struct BlockHeader",
          "name": "header",
          "type": "tuple"
        }
      ],
      "name": "getBlockDigest",
      "outputs": [
        {
          "internalType": "bytes32",
          "name": "",
          "type": "bytes32"
        }
      ],
      "stateMutability": "pure",
      "type": "function"
    },
    {
      "inputs": [
        {
          "components": [
            {
              "internalType": "bytes32",
              "name": "prevBlockId",
              "type": "bytes32"
            },
            {
              "internalType": "bytes32",
              "name": "blockBodyId",
              "type": "bytes32"
            },
            {
              "internalType": "bytes32",
              "name": "confirmerSetId",
              "type": "bytes32"
            },
            {
              "internalType": "uint256",
              "name": "timestamp",
              "type": "uint256"
            },
            {
              "internalType": "bytes",
              "name": "sigs",
              "type": "bytes"
            }
          ],
          "internalType": "struct BlockHeader",
          "name": "header",
          "type": "tuple"
        }
      ],
      "name": "getBlockId",
      "outputs": [
        {
          "internalType": "bytes32",
          "name": "",
          "type": "bytes32"
        }
      ],
      "stateMutability": "pure",
      "type": "function"
    },
    {
      "inputs": [
        {
          "components": [
            {
              "internalType": "address",
              "name": "addr",
              "type": "address"
            },
            {
              "internalType": "uint8",
              "name": "weight",
              "type": "uint8"
            }
          ],
          "internalType": "struct Confirmer[]",
          "name": "confirmers",
          "type": "tuple[]"
        },
        {
          "internalType": "uint8",
          "name": "threshold",
          "type": "uint8"
        }
      ],
      "name": "getConfirmerSetId",
      "outputs": [
        {
          "internalType": "bytes32",
          "name": "",
          "type": "bytes32"
        }
      ],
      "stateMutability": "pure",
      "type": "function"
    },
    {
      "inputs": [
        {
          "components": [
            {
              "internalType": "bytes32",
              "name": "prevBlockId",
              "type": "bytes32"
            },
            {
              "internalType": "bytes32",
              "name": "blockBodyId",
              "type": "bytes32"
            },
            {
              "internalType": "bytes32",
              "name": "confirmerSetId",
              "type": "bytes32"
            },
            {
              "internalType": "uint256",
              "name": "timestamp",
              "type": "uint256"
            },
            {
              "internalType": "bytes",
              "name": "sigs",
              "type": "bytes"
            }
          ],
          "internalType": "struct BlockHeader",
          "name": "header",
          "type": "tuple"
        },
        {
          "internalType": "uint8",
          "name": "sigIndex",
          "type": "uint8"
        }
      ],
      "name": "getSig",
      "outputs": [
        {
          "components": [
            {
              "internalType": "bytes32",
              "name": "r",
              "type": "bytes32"
            },
            {
              "internalType": "bytes32",
              "name": "s",
              "type": "bytes32"
            },
            {
              "internalType": "uint8",
              "name": "v",
              "type": "uint8"
            }
          ],
          "internalType": "struct Signature",
          "name": "",
          "type": "tuple"
        }
      ],
      "stateMutability": "pure",
      "type": "function"
    },
    {
      "inputs": [
        {
          "components": [
            {
              "components": [
                {
                  "internalType": "bytes32",
                  "name": "prevBlockId",
                  "type": "bytes32"
                },
                {
                  "internalType": "bytes32",
                  "name": "blockBodyId",
                  "type": "bytes32"
                },
                {
                  "internalType": "bytes32",
                  "name": "confirmerSetId",
                  "type": "bytes32"
                },
                {
                  "internalType": "uint256",
                  "name": "timestamp",
                  "type": "uint256"
                },
                {
                  "internalType": "bytes",
                  "name": "sigs",
                  "type": "bytes"
                }
              ],
              "internalType": "struct BlockHeader",
              "name": "header",
              "type": "tuple"
            },
            {
              "components": [
                {
                  "internalType": "address",
                  "name": "addr",
                  "type": "address"
                },
                {
                  "internalType": "bytes",
                  "name": "cdata",
                  "type": "bytes"
                }
              ],
              "internalType": "struct Call[]",
              "name": "calls",
              "type": "tuple[]"
            }
          ],
          "internalType": "struct Block",
          "name": "bl",
          "type": "tuple"
        }
      ],
      "name": "verifyBlockBodyId",
      "outputs": [
        {
          "internalType": "bool",
          "name": "",
          "type": "bool"
        }
      ],
      "stateMutability": "pure",
      "type": "function"
    },
    {
      "inputs": [
        {
          "components": [
            {
              "internalType": "bytes32",
              "name": "prevBlockId",
              "type": "bytes32"
            },
            {
              "internalType": "bytes32",
              "name": "blockBodyId",
              "type": "bytes32"
            },
            {
              "internalType": "bytes32",
              "name": "confirmerSetId",
              "type": "bytes32"
            },
            {
              "internalType": "uint256",
              "name": "timestamp",
              "type": "uint256"
            },
            {
              "internalType": "bytes",
              "name": "sigs",
              "type": "bytes"
            }
          ],
          "internalType": "struct BlockHeader",
          "name": "header",
          "type": "tuple"
        },
        {
          "internalType": "uint8",
          "name": "sigIndex",
          "type": "uint8"
        },
        {
          "internalType": "address",
          "name": "signer",
          "type": "address"
        }
      ],
      "name": "verifySigInBlock",
      "outputs": [
        {
          "internalType": "bool",
          "name": "",
          "type": "bool"
        }
      ],
      "stateMutability": "pure",
      "type": "function"
    }
  ],
  "bytecode": "0x608060405234801561001057600080fd5b50611bf9806100206000396000f3fe608060405234801561001057600080fd5b50600436106100b45760003560e01c8063c07661f811610071578063c07661f8146101d9578063c7f9a2e714610209578063dcb8f82114610239578063df2067fb14610269578063e7dbbb1c14610299578063ef16a584146102c9576100b4565b80630b18c875146100b9578063413de486146100e95780634f544f6a146101195780636049293a1461014957806388476b8b1461017957806395ecee61146101a9575b600080fd5b6100d360048036038101906100ce91906109bf565b6102f9565b6040516100e09190610a21565b60405180910390f35b61010360048036038101906100fe9190610a5b565b61037a565b6040516101109190610a21565b60405180910390f35b610133600480360381019061012e9190610b3b565b6103fb565b6040516101409190610bc5565b60405180910390f35b610163600480360381019061015e9190610a5b565b610481565b6040516101709190610a21565b60405180910390f35b610193600480360381019061018e9190610bff565b610502565b6040516101a09190610a21565b60405180910390f35b6101c360048036038101906101be9190610c2c565b610583565b6040516101d09190610ce8565b60405180910390f35b6101f360048036038101906101ee9190610a5b565b61060d565b6040516102009190610d93565b60405180910390f35b610223600480360381019061021e9190610e1a565b610693565b6040516102309190610a21565b60405180910390f35b610253600480360381019061024e9190610ea6565b610719565b6040516102609190610f11565b60405180910390f35b610283600480360381019061027e91906109bf565b61079f565b6040516102909190610bc5565b60405180910390f35b6102b360048036038101906102ae9190610ffc565b610820565b6040516102c09190610a21565b60405180910390f35b6102e360048036038101906102de919061107f565b6108a1565b6040516102f09190610d93565b60405180910390f35b600073__$1fd325655463c57248df09018dd18eeef5$__63907c92a5836040518263ffffffff1660e01b815260040161033291906114db565b602060405180830381865af415801561034f573d6000803e3d6000fd5b505050506040513d601f19601f820116820180604052508101906103739190611512565b9050919050565b600073__$1fd325655463c57248df09018dd18eeef5$__639f1fc511836040518263ffffffff1660e01b81526004016103b391906115df565b602060405180830381865af41580156103d0573d6000803e3d6000fd5b505050506040513d601f19601f820116820180604052508101906103f49190611512565b9050919050565b600073__$1fd325655463c57248df09018dd18eeef5$__62e22a848585856040518463ffffffff1660e01b81526004016104379392919061161f565b602060405180830381865af4158015610454573d6000803e3d6000fd5b505050506040513d601f19601f820116820180604052508101906104789190611689565b90509392505050565b600073__$1fd325655463c57248df09018dd18eeef5$__63b0da75ab836040518263ffffffff1660e01b81526004016104ba91906115df565b602060405180830381865af41580156104d7573d6000803e3d6000fd5b505050506040513d601f19601f820116820180604052508101906104fb9190611512565b9050919050565b600073__$1fd325655463c57248df09018dd18eeef5$__63a1892018836040518263ffffffff1660e01b815260040161053b919061171b565b602060405180830381865af4158015610558573d6000803e3d6000fd5b505050506040513d601f19601f8201168201806040525081019061057c9190611512565b9050919050565b61058b61092a565b73__$1fd325655463c57248df09018dd18eeef5$__63e883755284846040518363ffffffff1660e01b81526004016105c4929190611736565b606060405180830381865af41580156105e1573d6000803e3d6000fd5b505050506040513d601f19601f8201168201806040525081019061060591906117df565b905092915050565b606073__$1fd325655463c57248df09018dd18eeef5$__63308cd6f9836040518263ffffffff1660e01b815260040161064691906115df565b600060405180830381865af4158015610663573d6000803e3d6000fd5b505050506040513d6000823e3d601f19601f8201168201806040525081019061068c91906118b2565b9050919050565b600073__$1fd325655463c57248df09018dd18eeef5$__624fa3448585856040518463ffffffff1660e01b81526004016106cf939291906119e2565b602060405180830381865af41580156106ec573d6000803e3d6000fd5b505050506040513d601f19601f820116820180604052508101906107109190611512565b90509392505050565b610721610954565b73__$1fd325655463c57248df09018dd18eeef5$__63dcb8f821836040518263ffffffff1660e01b81526004016107589190611a23565b6040805180830381865af4158015610774573d6000803e3d6000fd5b505050506040513d601f19601f820116820180604052508101906107989190611aa3565b9050919050565b600073__$1fd325655463c57248df09018dd18eeef5$__63ede58c88836040518263ffffffff1660e01b81526004016107d891906114db565b602060405180830381865af41580156107f5573d6000803e3d6000fd5b505050506040513d601f19601f820116820180604052508101906108199190611689565b9050919050565b600073__$1fd325655463c57248df09018dd18eeef5$__6363a0fecf836040518263ffffffff1660e01b81526004016108599190611aff565b602060405180830381865af4158015610876573d6000803e3d6000fd5b505050506040513d601f19601f8201168201806040525081019061089a9190611512565b9050919050565b606073__$1fd325655463c57248df09018dd18eeef5$__63fa2e896d84846040518363ffffffff1660e01b81526004016108dc929190611b9f565b600060405180830381865af41580156108f9573d6000803e3d6000fd5b505050506040513d6000823e3d601f19601f8201168201806040525081019061092291906118b2565b905092915050565b60405180606001604052806000801916815260200160008019168152602001600060ff1681525090565b6040518060400160405280600073ffffffffffffffffffffffffffffffffffffffff168152602001600060ff1681525090565b6000604051905090565b600080fd5b600080fd5b600080fd5b6000604082840312156109b6576109b561099b565b5b81905092915050565b6000602082840312156109d5576109d4610991565b5b600082013567ffffffffffffffff8111156109f3576109f2610996565b5b6109ff848285016109a0565b91505092915050565b6000819050919050565b610a1b81610a08565b82525050565b6000602082019050610a366000830184610a12565b92915050565b600060a08284031215610a5257610a5161099b565b5b81905092915050565b600060208284031215610a7157610a70610991565b5b600082013567ffffffffffffffff811115610a8f57610a8e610996565b5b610a9b84828501610a3c565b91505092915050565b600060ff82169050919050565b610aba81610aa4565b8114610ac557600080fd5b50565b600081359050610ad781610ab1565b92915050565b600073ffffffffffffffffffffffffffffffffffffffff82169050919050565b6000610b0882610add565b9050919050565b610b1881610afd565b8114610b2357600080fd5b50565b600081359050610b3581610b0f565b92915050565b600080600060608486031215610b5457610b53610991565b5b600084013567ffffffffffffffff811115610b7257610b71610996565b5b610b7e86828701610a3c565b9350506020610b8f86828701610ac8565b9250506040610ba086828701610b26565b9150509250925092565b60008115159050919050565b610bbf81610baa565b82525050565b6000602082019050610bda6000830184610bb6565b92915050565b600060408284031215610bf657610bf561099b565b5b81905092915050565b600060408284031215610c1557610c14610991565b5b6000610c2384828501610be0565b91505092915050565b60008060408385031215610c4357610c42610991565b5b600083013567ffffffffffffffff811115610c6157610c60610996565b5b610c6d85828601610a3c565b9250506020610c7e85828601610ac8565b9150509250929050565b610c9181610a08565b82525050565b610ca081610aa4565b82525050565b606082016000820151610cbc6000850182610c88565b506020820151610ccf6020850182610c88565b506040820151610ce26040850182610c97565b50505050565b6000606082019050610cfd6000830184610ca6565b92915050565b600081519050919050565b600082825260208201905092915050565b60005b83811015610d3d578082015181840152602081019050610d22565b60008484015250505050565b6000601f19601f8301169050919050565b6000610d6582610d03565b610d6f8185610d0e565b9350610d7f818560208601610d1f565b610d8881610d49565b840191505092915050565b60006020820190508181036000830152610dad8184610d5a565b905092915050565b600080fd5b600080fd5b600080fd5b60008083601f840112610dda57610dd9610db5565b5b8235905067ffffffffffffffff811115610df757610df6610dba565b5b602083019150836040820283011115610e1357610e12610dbf565b5b9250929050565b600080600060408486031215610e3357610e32610991565b5b600084013567ffffffffffffffff811115610e5157610e50610996565b5b610e5d86828701610dc4565b93509350506020610e7086828701610ac8565b9150509250925092565b610e8381610a08565b8114610e8e57600080fd5b50565b600081359050610ea081610e7a565b92915050565b600060208284031215610ebc57610ebb610991565b5b6000610eca84828501610e91565b91505092915050565b610edc81610afd565b82525050565b604082016000820151610ef86000850182610ed3565b506020820151610f0b6020850182610c97565b50505050565b6000604082019050610f266000830184610ee2565b92915050565b600080fd5b7f4e487b7100000000000000000000000000000000000000000000000000000000600052604160045260246000fd5b610f6982610d49565b810181811067ffffffffffffffff82111715610f8857610f87610f31565b5b80604052505050565b6000610f9b610987565b9050610fa78282610f60565b919050565b600060408284031215610fc257610fc1610f2c565b5b610fcc6040610f91565b90506000610fdc84828501610b26565b6000830152506020610ff084828501610ac8565b60208301525092915050565b60006040828403121561101257611011610991565b5b600061102084828501610fac565b91505092915050565b60008083601f84011261103f5761103e610db5565b5b8235905067ffffffffffffffff81111561105c5761105b610dba565b5b60208301915083602082028301111561107857611077610dbf565b5b9250929050565b6000806020838503121561109657611095610991565b5b600083013567ffffffffffffffff8111156110b4576110b3610996565b5b6110c085828601611029565b92509250509250929050565b600080fd5b60008235600160a0038336030381126110ed576110ec6110cc565b5b82810191505092915050565b60006111086020840184610e91565b905092915050565b61111981610a08565b82525050565b6000819050919050565b6111328161111f565b811461113d57600080fd5b50565b60008135905061114f81611129565b92915050565b60006111646020840184611140565b905092915050565b6111758161111f565b82525050565b600080fd5b600080fd5b600080833560016020038436030381126111a2576111a16110cc565b5b83810192508235915060208301925067ffffffffffffffff8211156111ca576111c961117b565b5b6001820236038313156111e0576111df611180565b5b509250929050565b600082825260208201905092915050565b82818337600083830152505050565b600061121483856111e8565b93506112218385846111f9565b61122a83610d49565b840190509392505050565b600060a0830161124860008401846110f9565b6112556000860182611110565b5061126360208401846110f9565b6112706020860182611110565b5061127e60408401846110f9565b61128b6040860182611110565b506112996060840184611155565b6112a6606086018261116c565b506112b46080840184611185565b85830360808701526112c7838284611208565b925050508091505092915050565b600080833560016020038436030381126112f2576112f16110cc565b5b83810192508235915060208301925067ffffffffffffffff82111561131a5761131961117b565b5b6020820236038313156113305761132f611180565b5b509250929050565b600082825260208201905092915050565b6000819050919050565b60006113626020840184610b26565b905092915050565b61137381610afd565b82525050565b60006040830161138c6000840184611353565b611399600086018261136a565b506113a76020840184611185565b85830360208701526113ba838284611208565b925050508091505092915050565b60006113d48383611379565b905092915050565b6000823560016040038336030381126113f8576113f76110cc565b5b82810191505092915050565b6000602082019050919050565b600061141d8385611338565b93508360208402850161142f84611349565b8060005b8781101561147357848403895261144a82846113dc565b61145485826113c8565b945061145f83611404565b925060208a01995050600181019050611433565b50829750879450505050509392505050565b60006040830161149860008401846110d1565b84820360008601526114aa8282611235565b9150506114ba60208401846112d5565b85830360208701526114cd838284611411565b925050508091505092915050565b600060208201905081810360008301526114f58184611485565b905092915050565b60008151905061150c81610e7a565b92915050565b60006020828403121561152857611527610991565b5b6000611536848285016114fd565b91505092915050565b600060a0830161155260008401846110f9565b61155f6000860182611110565b5061156d60208401846110f9565b61157a6020860182611110565b5061158860408401846110f9565b6115956040860182611110565b506115a36060840184611155565b6115b0606086018261116c565b506115be6080840184611185565b85830360808701526115d1838284611208565b925050508091505092915050565b600060208201905081810360008301526115f9818461153f565b905092915050565b61160a81610aa4565b82525050565b61161981610afd565b82525050565b60006060820190508181036000830152611639818661153f565b90506116486020830185611601565b6116556040830184611610565b949350505050565b61166681610baa565b811461167157600080fd5b50565b6000815190506116838161165d565b92915050565b60006020828403121561169f5761169e610991565b5b60006116ad84828501611674565b91505092915050565b60006116c56020840184610ac8565b905092915050565b6116d681610aa4565b82525050565b604082016116ed6000830183611353565b6116fa600085018261136a565b5061170860208301836116b6565b61171560208501826116cd565b50505050565b600060408201905061173060008301846116dc565b92915050565b60006040820190508181036000830152611750818561153f565b905061175f6020830184611601565b9392505050565b60008151905061177581610ab1565b92915050565b60006060828403121561179157611790610f2c565b5b61179b6060610f91565b905060006117ab848285016114fd565b60008301525060206117bf848285016114fd565b60208301525060406117d384828501611766565b60408301525092915050565b6000606082840312156117f5576117f4610991565b5b60006118038482850161177b565b91505092915050565b600080fd5b600067ffffffffffffffff82111561182c5761182b610f31565b5b61183582610d49565b9050602081019050919050565b600061185561185084611811565b610f91565b9050828152602081018484840111156118715761187061180c565b5b61187c848285610d1f565b509392505050565b600082601f83011261189957611898610db5565b5b81516118a9848260208601611842565b91505092915050565b6000602082840312156118c8576118c7610991565b5b600082015167ffffffffffffffff8111156118e6576118e5610996565b5b6118f284828501611884565b91505092915050565b600082825260208201905092915050565b6000819050919050565b604082016119276000830183611353565b611934600085018261136a565b5061194260208301836116b6565b61194f60208501826116cd565b50505050565b60006119618383611916565b60408301905092915050565b600082905092915050565b6000604082019050919050565b600061199183856118fb565b935061199c8261190c565b8060005b858110156119d5576119b2828461196d565b6119bc8882611955565b97506119c783611978565b9250506001810190506119a0565b5085925050509392505050565b600060408201905081810360008301526119fd818587611985565b9050611a0c6020830184611601565b949350505050565b611a1d81610a08565b82525050565b6000602082019050611a386000830184611a14565b92915050565b600081519050611a4d81610b0f565b92915050565b600060408284031215611a6957611a68610f2c565b5b611a736040610f91565b90506000611a8384828501611a3e565b6000830152506020611a9784828501611766565b60208301525092915050565b600060408284031215611ab957611ab8610991565b5b6000611ac784828501611a53565b91505092915050565b604082016000820151611ae6600085018261136a565b506020820151611af960208501826116cd565b50505050565b6000604082019050611b146000830184611ad0565b92915050565b600082825260208201905092915050565b6000611b378385611b1a565b935083602084028501611b4984611349565b8060005b87811015611b8d578484038952611b6482846113dc565b611b6e85826113c8565b9450611b7983611404565b925060208a01995050600181019050611b4d565b50829750879450505050509392505050565b60006020820190508181036000830152611bba818486611b2b565b9050939250505056fea26469706673582212205dc4156ddf612d06536dba48f8ea43aba9f910e919c668a9dfa0bd86032eda7864736f6c63430008110033",
  "linkReferences": {
    "contracts/FirmChainAbi.sol": {
      "FirmChainAbi": [
        {
          "length": 20,
          "start": 797
        },
        {
          "length": 20,
          "start": 926
        },
        {
          "length": 20,
          "start": 1055
        },
        {
          "length": 20,
          "start": 1189
        },
        {
          "length": 20,
          "start": 1318
        },
        {
          "length": 20,
          "start": 1453
        },
        {
          "length": 20,
          "start": 1585
        },
        {
          "length": 20,
          "start": 1719
        },
        {
          "length": 20,
          "start": 1859
        },
        {
          "length": 20,
          "start": 1987
        },
        {
          "length": 20,
          "start": 2116
        },
        {
          "length": 20,
          "start": 2245
        }
      ]
    }
  },
  "deployedLinkReferences": {
    "contracts/FirmChainAbi.sol": {
      "FirmChainAbi": [
        {
          "length": 20,
          "start": 765
        },
        {
          "length": 20,
          "start": 894
        },
        {
          "length": 20,
          "start": 1023
        },
        {
          "length": 20,
          "start": 1157
        },
        {
          "length": 20,
          "start": 1286
        },
        {
          "length": 20,
          "start": 1421
        },
        {
          "length": 20,
          "start": 1553
        },
        {
          "length": 20,
          "start": 1687
        },
        {
          "length": 20,
          "start": 1827
        },
        {
          "length": 20,
          "start": 1955
        },
        {
          "length": 20,
          "start": 2084
        },
        {
          "length": 20,
          "start": 2213
        }
      ]
    }
  }
}