{
  "_format": "hh-sol-artifact-1",
  "contractName": "FirmChainAbi",
  "sourceName": "contracts/FirmChainAbi.sol",
  "abi": [
    {
      "inputs": [
        {
          "internalType": "bytes32",
          "name": "p",
          "type": "bytes32"
        }
      ],
      "name": "decodeConfirmer",
      "outputs": [
        {
          "components": [
            {
              "internalType": "address",
              "name": "addr",
              "type": "address"
            },
            {
              "internalType": "uint8",
              "name": "weight",
              "type": "uint8"
            }
          ],
          "internalType": "struct Confirmer",
          "name": "",
          "type": "tuple"
        }
      ],
      "stateMutability": "pure",
      "type": "function"
    },
    {
      "inputs": [
        {
          "components": [
            {
              "internalType": "bytes32",
              "name": "prevBlockId",
              "type": "bytes32"
            },
            {
              "internalType": "bytes32",
              "name": "blockBodyId",
              "type": "bytes32"
            },
            {
              "internalType": "bytes32",
              "name": "confirmerSetId",
              "type": "bytes32"
            },
            {
              "internalType": "uint256",
              "name": "timestamp",
              "type": "uint256"
            },
            {
              "internalType": "bytes",
              "name": "sigs",
              "type": "bytes"
            }
          ],
          "internalType": "struct BlockHeader",
          "name": "header",
          "type": "tuple"
        }
      ],
      "name": "encode",
      "outputs": [
        {
          "internalType": "bytes",
          "name": "",
          "type": "bytes"
        }
      ],
      "stateMutability": "pure",
      "type": "function"
    },
    {
      "inputs": [
        {
          "components": [
            {
              "internalType": "address",
              "name": "addr",
              "type": "address"
            },
            {
              "internalType": "bytes",
              "name": "cdata",
              "type": "bytes"
            }
          ],
          "internalType": "struct Call[]",
          "name": "calls",
          "type": "tuple[]"
        }
      ],
      "name": "encodeBlockBody",
      "outputs": [
        {
          "internalType": "bytes",
          "name": "",
          "type": "bytes"
        }
      ],
      "stateMutability": "pure",
      "type": "function"
    },
    {
      "inputs": [
        {
          "components": [
            {
              "internalType": "address",
              "name": "addr",
              "type": "address"
            },
            {
              "internalType": "uint8",
              "name": "weight",
              "type": "uint8"
            }
          ],
          "internalType": "struct Confirmer",
          "name": "confirmer",
          "type": "tuple"
        }
      ],
      "name": "encodeConfirmer",
      "outputs": [
        {
          "internalType": "bytes32",
          "name": "",
          "type": "bytes32"
        }
      ],
      "stateMutability": "pure",
      "type": "function"
    },
    {
      "inputs": [
        {
          "components": [
            {
              "internalType": "address",
              "name": "addr",
              "type": "address"
            },
            {
              "internalType": "uint8",
              "name": "weight",
              "type": "uint8"
            }
          ],
          "internalType": "struct Confirmer",
          "name": "confirmer",
          "type": "tuple"
        }
      ],
      "name": "encodeConfirmerMem",
      "outputs": [
        {
          "internalType": "bytes32",
          "name": "",
          "type": "bytes32"
        }
      ],
      "stateMutability": "pure",
      "type": "function"
    },
    {
      "inputs": [
        {
          "components": [
            {
              "components": [
                {
                  "internalType": "bytes32",
                  "name": "prevBlockId",
                  "type": "bytes32"
                },
                {
                  "internalType": "bytes32",
                  "name": "blockBodyId",
                  "type": "bytes32"
                },
                {
                  "internalType": "bytes32",
                  "name": "confirmerSetId",
                  "type": "bytes32"
                },
                {
                  "internalType": "uint256",
                  "name": "timestamp",
                  "type": "uint256"
                },
                {
                  "internalType": "bytes",
                  "name": "sigs",
                  "type": "bytes"
                }
              ],
              "internalType": "struct BlockHeader",
              "name": "header",
              "type": "tuple"
            },
            {
              "components": [
                {
                  "internalType": "address",
                  "name": "addr",
                  "type": "address"
                },
                {
                  "internalType": "bytes",
                  "name": "cdata",
                  "type": "bytes"
                }
              ],
              "internalType": "struct Call[]",
              "name": "calls",
              "type": "tuple[]"
            }
          ],
          "internalType": "struct Block",
          "name": "bl",
          "type": "tuple"
        }
      ],
      "name": "getBlockBodyId",
      "outputs": [
        {
          "internalType": "bytes32",
          "name": "",
          "type": "bytes32"
        }
      ],
      "stateMutability": "pure",
      "type": "function"
    },
    {
      "inputs": [
        {
          "components": [
            {
              "internalType": "bytes32",
              "name": "prevBlockId",
              "type": "bytes32"
            },
            {
              "internalType": "bytes32",
              "name": "blockBodyId",
              "type": "bytes32"
            },
            {
              "internalType": "bytes32",
              "name": "confirmerSetId",
              "type": "bytes32"
            },
            {
              "internalType": "uint256",
              "name": "timestamp",
              "type": "uint256"
            },
            {
              "internalType": "bytes",
              "name": "sigs",
              "type": "bytes"
            }
          ],
          "internalType": "struct BlockHeader",
          "name": "header",
          "type": "tuple"
        }
      ],
      "name": "getBlockDigest",
      "outputs": [
        {
          "internalType": "bytes32",
          "name": "",
          "type": "bytes32"
        }
      ],
      "stateMutability": "pure",
      "type": "function"
    },
    {
      "inputs": [
        {
          "components": [
            {
              "internalType": "bytes32",
              "name": "prevBlockId",
              "type": "bytes32"
            },
            {
              "internalType": "bytes32",
              "name": "blockBodyId",
              "type": "bytes32"
            },
            {
              "internalType": "bytes32",
              "name": "confirmerSetId",
              "type": "bytes32"
            },
            {
              "internalType": "uint256",
              "name": "timestamp",
              "type": "uint256"
            },
            {
              "internalType": "bytes",
              "name": "sigs",
              "type": "bytes"
            }
          ],
          "internalType": "struct BlockHeader",
          "name": "header",
          "type": "tuple"
        }
      ],
      "name": "getBlockId",
      "outputs": [
        {
          "internalType": "bytes32",
          "name": "",
          "type": "bytes32"
        }
      ],
      "stateMutability": "pure",
      "type": "function"
    },
    {
      "inputs": [
        {
          "components": [
            {
              "internalType": "address",
              "name": "addr",
              "type": "address"
            },
            {
              "internalType": "uint8",
              "name": "weight",
              "type": "uint8"
            }
          ],
          "internalType": "struct Confirmer[]",
          "name": "confirmers",
          "type": "tuple[]"
        },
        {
          "internalType": "uint8",
          "name": "threshold",
          "type": "uint8"
        }
      ],
      "name": "getConfirmerSetId",
      "outputs": [
        {
          "internalType": "bytes32",
          "name": "",
          "type": "bytes32"
        }
      ],
      "stateMutability": "pure",
      "type": "function"
    },
    {
      "inputs": [
        {
          "components": [
            {
              "internalType": "bytes32",
              "name": "prevBlockId",
              "type": "bytes32"
            },
            {
              "internalType": "bytes32",
              "name": "blockBodyId",
              "type": "bytes32"
            },
            {
              "internalType": "bytes32",
              "name": "confirmerSetId",
              "type": "bytes32"
            },
            {
              "internalType": "uint256",
              "name": "timestamp",
              "type": "uint256"
            },
            {
              "internalType": "bytes",
              "name": "sigs",
              "type": "bytes"
            }
          ],
          "internalType": "struct BlockHeader",
          "name": "header",
          "type": "tuple"
        },
        {
          "internalType": "uint8",
          "name": "sigIndex",
          "type": "uint8"
        }
      ],
      "name": "getSig",
      "outputs": [
        {
          "components": [
            {
              "internalType": "bytes32",
              "name": "r",
              "type": "bytes32"
            },
            {
              "internalType": "bytes32",
              "name": "s",
              "type": "bytes32"
            },
            {
              "internalType": "uint8",
              "name": "v",
              "type": "uint8"
            }
          ],
          "internalType": "struct Signature",
          "name": "",
          "type": "tuple"
        }
      ],
      "stateMutability": "pure",
      "type": "function"
    },
    {
      "inputs": [
        {
          "components": [
            {
              "components": [
                {
                  "internalType": "bytes32",
                  "name": "prevBlockId",
                  "type": "bytes32"
                },
                {
                  "internalType": "bytes32",
                  "name": "blockBodyId",
                  "type": "bytes32"
                },
                {
                  "internalType": "bytes32",
                  "name": "confirmerSetId",
                  "type": "bytes32"
                },
                {
                  "internalType": "uint256",
                  "name": "timestamp",
                  "type": "uint256"
                },
                {
                  "internalType": "bytes",
                  "name": "sigs",
                  "type": "bytes"
                }
              ],
              "internalType": "struct BlockHeader",
              "name": "header",
              "type": "tuple"
            },
            {
              "components": [
                {
                  "internalType": "address",
                  "name": "addr",
                  "type": "address"
                },
                {
                  "internalType": "bytes",
                  "name": "cdata",
                  "type": "bytes"
                }
              ],
              "internalType": "struct Call[]",
              "name": "calls",
              "type": "tuple[]"
            }
          ],
          "internalType": "struct Block",
          "name": "bl",
          "type": "tuple"
        }
      ],
      "name": "verifyBlockBodyId",
      "outputs": [
        {
          "internalType": "bool",
          "name": "",
          "type": "bool"
        }
      ],
      "stateMutability": "pure",
      "type": "function"
    },
    {
      "inputs": [
        {
          "components": [
            {
              "internalType": "bytes32",
              "name": "prevBlockId",
              "type": "bytes32"
            },
            {
              "internalType": "bytes32",
              "name": "blockBodyId",
              "type": "bytes32"
            },
            {
              "internalType": "bytes32",
              "name": "confirmerSetId",
              "type": "bytes32"
            },
            {
              "internalType": "uint256",
              "name": "timestamp",
              "type": "uint256"
            },
            {
              "internalType": "bytes",
              "name": "sigs",
              "type": "bytes"
            }
          ],
          "internalType": "struct BlockHeader",
          "name": "header",
          "type": "tuple"
        },
        {
          "components": [
            {
              "internalType": "bytes32",
              "name": "r",
              "type": "bytes32"
            },
            {
              "internalType": "bytes32",
              "name": "s",
              "type": "bytes32"
            },
            {
              "internalType": "uint8",
              "name": "v",
              "type": "uint8"
            }
          ],
          "internalType": "struct Signature",
          "name": "sig",
          "type": "tuple"
        },
        {
          "internalType": "address",
          "name": "signer",
          "type": "address"
        }
      ],
      "name": "verifyBlockSig",
      "outputs": [
        {
          "internalType": "bool",
          "name": "",
          "type": "bool"
        }
      ],
      "stateMutability": "pure",
      "type": "function"
    },
    {
      "inputs": [
        {
          "components": [
            {
              "internalType": "bytes32",
              "name": "prevBlockId",
              "type": "bytes32"
            },
            {
              "internalType": "bytes32",
              "name": "blockBodyId",
              "type": "bytes32"
            },
            {
              "internalType": "bytes32",
              "name": "confirmerSetId",
              "type": "bytes32"
            },
            {
              "internalType": "uint256",
              "name": "timestamp",
              "type": "uint256"
            },
            {
              "internalType": "bytes",
              "name": "sigs",
              "type": "bytes"
            }
          ],
          "internalType": "struct BlockHeader",
          "name": "header",
          "type": "tuple"
        },
        {
          "internalType": "uint8",
          "name": "sigIndex",
          "type": "uint8"
        },
        {
          "internalType": "address",
          "name": "signer",
          "type": "address"
        }
      ],
      "name": "verifySigInBlock",
      "outputs": [
        {
          "internalType": "bool",
          "name": "",
          "type": "bool"
        }
      ],
      "stateMutability": "pure",
      "type": "function"
    }
  ],
  "bytecode": "0x61234e610053600b82828239805160001a607314610046577f4e487b7100000000000000000000000000000000000000000000000000000000600052600060045260246000fd5b30600052607381538281f3fe730000000000000000000000000000000000000000301460806040526004361061013f5760003560e01c8063907c92a5116100c2578063d2c7aa2611610086578063d2c7aa2614610434578063dcb8f82114610464578063e883755214610494578063ede58c88146104c4578063ee77acfa146104f4578063fa2e896d146105245761013f565b8063907c92a5146103375780639f1fc51114610367578063a189201814610397578063aff54ff3146103c7578063b0da75ab146104045761013f565b806324d6d8fb1161010957806324d6d8fb1461023a578063308cd6f91461027757806363a0fecf146102a757806365334415146102d7578063813e08b7146103075761013f565b80624fa34414610144578062e22a84146101745780630ccd17d3146101a457806315787102146101e15780631e28a6721461020a575b600080fd5b61015e60048036038101906101599190610faf565b610554565b60405161016b9190611028565b60405180910390f35b61018e600480360381019061018991906110c5565b61063a565b60405161019b919061114f565b60405180910390f35b8180156101b057600080fd5b506101cb60048036038101906101c691906111bf565b61065e565b6040516101d8919061114f565b60405180910390f35b8180156101ed57600080fd5b50610208600480360381019061020391906111ff565b610686565b005b610224600480360381019061021f919061123f565b6106a7565b6040516102319190611028565b60405180910390f35b81801561024657600080fd5b50610261600480360381019061025c919061126c565b6106f3565b60405161026e9190611028565b60405180910390f35b610291600480360381019061028c91906112e0565b610781565b60405161029e91906113b9565b60405180910390f35b6102c160048036038101906102bc91906114ab565b6107d2565b6040516102ce9190611028565b60405180910390f35b6102f160048036038101906102ec9190611568565b61080b565b6040516102fe919061114f565b60405180910390f35b610321600480360381019061031c919061123f565b6108b2565b60405161032e91906115e6565b60405180910390f35b610351600480360381019061034c9190611620565b6108cd565b60405161035e9190611028565b60405180910390f35b610381600480360381019061037c91906112e0565b6108fa565b60405161038e9190611028565b60405180910390f35b6103b160048036038101906103ac9190611669565b610918565b6040516103be9190611028565b60405180910390f35b8180156103d357600080fd5b506103ee60048036038101906103e991906111bf565b61096d565b6040516103fb919061114f565b60405180910390f35b61041e600480360381019061041991906112e0565b610995565b60405161042b9190611028565b60405180910390f35b61044e6004803603810190610449919061123f565b6109e0565b60405161045b91906116af565b60405180910390f35b61047e600480360381019061047991906116ca565b6109f5565b60405161048b9190611744565b60405180910390f35b6104ae60048036038101906104a9919061175f565b610a5f565b6040516104bb919061180c565b60405180910390f35b6104de60048036038101906104d99190611620565b610bd7565b6040516104eb919061114f565b60405180910390f35b61050e60048036038101906105099190611853565b610c03565b60405161051b9190611744565b60405180910390f35b61053e600480360381019061053991906118e9565b610c37565b60405161054b91906113b9565b60405180910390f35b6000808484905067ffffffffffffffff811115610574576105736113e0565b5b6040519080825280602002602001820160405280156105a25781602001602082028036833780820191505090505b50905060005b85859050811015610606576105d48686838181106105c9576105c8611936565b5b905060400201610918565b8282815181106105e7576105e6611936565b5b60200260200101818152505080806105fe90611994565b9150506105a8565b50828160405160200161061a929190611aca565b604051602081830303815290604052805190602001209150509392505050565b6000806106478585610a5f565b905061065485828561080b565b9150509392505050565b600061067e61066c83610918565b84600101610c6390919063ffffffff16565b905092915050565b808260000160006101000a81548160ff021916908360ff1602179055505050565b60008160000160009054906101000a900460ff16826001016000016000016040516020016106d6929190611bc8565b604051602081830303815290604052805190602001209050919050565b600080600090505b848490508110156107505761073c61072a86868481811061071f5761071e611936565b5b905060400201610918565b87600101610c6390919063ffffffff16565b50808061074890611994565b9150506106fb565b50818560000160006101000a81548160ff021916908360ff160217905550610777856106a7565b9050949350505050565b606081600001358260200135836040013584606001358580608001906107a79190611bff565b6040516020016107bc96959493929190611ce3565b6040516020818303038152906040529050919050565b600080826020015160ff166008846000015173ffffffffffffffffffffffffffffffffffffffff16901b1760001b905080915050919050565b60008061081785610995565b905060006001828660400151876000015188602001516040516000815260200160405260405161084a9493929190611d5e565b6020604051602081039080840390855afa15801561086c573d6000803e3d6000fd5b5050506020604051035190508373ffffffffffffffffffffffffffffffffffffffff168173ffffffffffffffffffffffffffffffffffffffff1614925050509392505050565b60008160000160009054906101000a900460ff169050919050565b6000806108e88380602001906108e39190611da3565b610c37565b90508080519060200120915050919050565b60008061090683610781565b90508080519060200120915050919050565b60008082602001602081019061092e9190611e06565b60ff1660088460000160208101906109469190611e33565b73ffffffffffffffffffffffffffffffffffffffff16901b1760001b905080915050919050565b600061098d61097b83610918565b84600101610c7a90919063ffffffff16565b905092915050565b60008082600001358360200135846040013585606001356040516020016109bf9493929190611e60565b60405160208183030381529060405290508080519060200120915050919050565b60006109ee82600101610c91565b9050919050565b6109fd610ea0565b600082601f60208110610a1357610a12611936565b5b1a60f81b60f81c9050600060088460001c901c905060405180604001604052808273ffffffffffffffffffffffffffffffffffffffff1681526020018360ff1681525092505050919050565b610a67610ed3565b6000604183610a769190611eae565b60ff169050838060800190610a8b9190611bff565b9050604182610a9a9190611efb565b63ffffffff161115610ae1576040517f08c379a0000000000000000000000000000000000000000000000000000000008152600401610ad890611f90565b60405180910390fd5b6040518060600160405280858060800190610afc9190611bff565b8463ffffffff1690602086610b119190611efb565b63ffffffff1692610b2493929190611fba565b90610b2f919061200d565b8152602001858060800190610b449190611bff565b602085610b519190611efb565b63ffffffff1690604086610b659190611efb565b63ffffffff1692610b7893929190611fba565b90610b83919061200d565b8152602001858060800190610b989190611bff565b604085610ba59190611efb565b63ffffffff16818110610bbb57610bba611936565b5b9050013560f81c60f81b60f81c60ff1681525091505092915050565b600080610be3836108cd565b905080838060000190610bf6919061206c565b6020013514915050919050565b610c0b610ea0565b6000610c238385600101610ca690919063ffffffff16565b9050610c2e816109f5565b91505092915050565b60608282604051602001610c4c929190612291565b604051602081830303815290604052905092915050565b6000610c728360000183610cbd565b905092915050565b6000610c898360000183610d2d565b905092915050565b6000610c9f82600001610e41565b9050919050565b6000610cb58360000183610e52565b905092915050565b6000610cc98383610e7d565b610d22578260000182908060018154018082558091505060019003906000526020600020016000909190919091505582600001805490508360010160008481526020019081526020016000208190555060019050610d27565b600090505b92915050565b60008083600101600084815260200190815260200160002054905060008114610e35576000600182610d5f91906122b5565b9050600060018660000180549050610d7791906122b5565b9050818114610de6576000866000018281548110610d9857610d97611936565b5b9060005260206000200154905080876000018481548110610dbc57610dbb611936565b5b90600052602060002001819055508387600101600083815260200190815260200160002081905550505b85600001805480610dfa57610df96122e9565b5b600190038181906000526020600020016000905590558560010160008681526020019081526020016000206000905560019350505050610e3b565b60009150505b92915050565b600081600001805490509050919050565b6000826000018281548110610e6a57610e69611936565b5b9060005260206000200154905092915050565b600080836001016000848152602001908152602001600020541415905092915050565b6040518060400160405280600073ffffffffffffffffffffffffffffffffffffffff168152602001600060ff1681525090565b60405180606001604052806000801916815260200160008019168152602001600060ff1681525090565b6000604051905090565b600080fd5b600080fd5b600080fd5b600080fd5b600080fd5b60008083601f840112610f3657610f35610f11565b5b8235905067ffffffffffffffff811115610f5357610f52610f16565b5b602083019150836040820283011115610f6f57610f6e610f1b565b5b9250929050565b600060ff82169050919050565b610f8c81610f76565b8114610f9757600080fd5b50565b600081359050610fa981610f83565b92915050565b600080600060408486031215610fc857610fc7610f07565b5b600084013567ffffffffffffffff811115610fe657610fe5610f0c565b5b610ff286828701610f20565b9350935050602061100586828701610f9a565b9150509250925092565b6000819050919050565b6110228161100f565b82525050565b600060208201905061103d6000830184611019565b92915050565b600080fd5b600060a0828403121561105e5761105d611043565b5b81905092915050565b600073ffffffffffffffffffffffffffffffffffffffff82169050919050565b600061109282611067565b9050919050565b6110a281611087565b81146110ad57600080fd5b50565b6000813590506110bf81611099565b92915050565b6000806000606084860312156110de576110dd610f07565b5b600084013567ffffffffffffffff8111156110fc576110fb610f0c565b5b61110886828701611048565b935050602061111986828701610f9a565b925050604061112a868287016110b0565b9150509250925092565b60008115159050919050565b61114981611134565b82525050565b60006020820190506111646000830184611140565b92915050565b6000819050919050565b61117d8161116a565b811461118857600080fd5b50565b60008135905061119a81611174565b92915050565b6000604082840312156111b6576111b5611043565b5b81905092915050565b600080606083850312156111d6576111d5610f07565b5b60006111e48582860161118b565b92505060206111f5858286016111a0565b9150509250929050565b6000806040838503121561121657611215610f07565b5b60006112248582860161118b565b925050602061123585828601610f9a565b9150509250929050565b60006020828403121561125557611254610f07565b5b60006112638482850161118b565b91505092915050565b6000806000806060858703121561128657611285610f07565b5b60006112948782880161118b565b945050602085013567ffffffffffffffff8111156112b5576112b4610f0c565b5b6112c187828801610f20565b935093505060406112d487828801610f9a565b91505092959194509250565b6000602082840312156112f6576112f5610f07565b5b600082013567ffffffffffffffff81111561131457611313610f0c565b5b61132084828501611048565b91505092915050565b600081519050919050565b600082825260208201905092915050565b60005b83811015611363578082015181840152602081019050611348565b60008484015250505050565b6000601f19601f8301169050919050565b600061138b82611329565b6113958185611334565b93506113a5818560208601611345565b6113ae8161136f565b840191505092915050565b600060208201905081810360008301526113d38184611380565b905092915050565b600080fd5b7f4e487b7100000000000000000000000000000000000000000000000000000000600052604160045260246000fd5b6114188261136f565b810181811067ffffffffffffffff82111715611437576114366113e0565b5b80604052505050565b600061144a610efd565b9050611456828261140f565b919050565b600060408284031215611471576114706113db565b5b61147b6040611440565b9050600061148b848285016110b0565b600083015250602061149f84828501610f9a565b60208301525092915050565b6000604082840312156114c1576114c0610f07565b5b60006114cf8482850161145b565b91505092915050565b6114e18161100f565b81146114ec57600080fd5b50565b6000813590506114fe816114d8565b92915050565b60006060828403121561151a576115196113db565b5b6115246060611440565b90506000611534848285016114ef565b6000830152506020611548848285016114ef565b602083015250604061155c84828501610f9a565b60408301525092915050565b600080600060a0848603121561158157611580610f07565b5b600084013567ffffffffffffffff81111561159f5761159e610f0c565b5b6115ab86828701611048565b93505060206115bc86828701611504565b92505060806115cd868287016110b0565b9150509250925092565b6115e081610f76565b82525050565b60006020820190506115fb60008301846115d7565b92915050565b60006040828403121561161757611616611043565b5b81905092915050565b60006020828403121561163657611635610f07565b5b600082013567ffffffffffffffff81111561165457611653610f0c565b5b61166084828501611601565b91505092915050565b60006040828403121561167f5761167e610f07565b5b600061168d848285016111a0565b91505092915050565b6000819050919050565b6116a981611696565b82525050565b60006020820190506116c460008301846116a0565b92915050565b6000602082840312156116e0576116df610f07565b5b60006116ee848285016114ef565b91505092915050565b61170081611087565b82525050565b61170f81610f76565b82525050565b60408201600082015161172b60008501826116f7565b50602082015161173e6020850182611706565b50505050565b60006040820190506117596000830184611715565b92915050565b6000806040838503121561177657611775610f07565b5b600083013567ffffffffffffffff81111561179457611793610f0c565b5b6117a085828601611048565b92505060206117b185828601610f9a565b9150509250929050565b6117c48161100f565b82525050565b6060820160008201516117e060008501826117bb565b5060208201516117f360208501826117bb565b5060408201516118066040850182611706565b50505050565b600060608201905061182160008301846117ca565b92915050565b61183081611696565b811461183b57600080fd5b50565b60008135905061184d81611827565b92915050565b6000806040838503121561186a57611869610f07565b5b60006118788582860161118b565b92505060206118898582860161183e565b9150509250929050565b60008083601f8401126118a9576118a8610f11565b5b8235905067ffffffffffffffff8111156118c6576118c5610f16565b5b6020830191508360208202830111156118e2576118e1610f1b565b5b9250929050565b60008060208385031215611900576118ff610f07565b5b600083013567ffffffffffffffff81111561191e5761191d610f0c565b5b61192a85828601611893565b92509250509250929050565b7f4e487b7100000000000000000000000000000000000000000000000000000000600052603260045260246000fd5b7f4e487b7100000000000000000000000000000000000000000000000000000000600052601160045260246000fd5b600061199f82611696565b91507fffffffffffffffffffffffffffffffffffffffffffffffffffffffffffffffff82036119d1576119d0611965565b5b600182019050919050565b60008160f81b9050919050565b60006119f4826119dc565b9050919050565b611a0c611a0782610f76565b6119e9565b82525050565b600081519050919050565b600081905092915050565b6000819050602082019050919050565b611a418161100f565b82525050565b6000611a538383611a38565b60208301905092915050565b6000602082019050919050565b6000611a7782611a12565b611a818185611a1d565b9350611a8c83611a28565b8060005b83811015611abd578151611aa48882611a47565b9750611aaf83611a5f565b925050600181019050611a90565b5085935050505092915050565b6000611ad682856119fb565b600182019150611ae68284611a6c565b91508190509392505050565b600081549050919050565b60008190508160005260206000209050919050565b60008160001c9050919050565b6000819050919050565b6000611b3c611b3783611b12565b611b1f565b9050919050565b6000611b4f8254611b29565b9050919050565b6000600182019050919050565b6000611b6e82611af2565b611b788185611a1d565b9350611b8383611afd565b8060005b83811015611bbb57611b9882611b43565b611ba28882611a47565b9750611bad83611b56565b925050600181019050611b87565b5085935050505092915050565b6000611bd482856119fb565b600182019150611be48284611b63565b91508190509392505050565b600080fd5b600080fd5b600080fd5b60008083356001602003843603038112611c1c57611c1b611bf0565b5b80840192508235915067ffffffffffffffff821115611c3e57611c3d611bf5565b5b602083019250600182023603831315611c5a57611c59611bfa565b5b509250929050565b6000819050919050565b611c7d611c788261100f565b611c62565b82525050565b6000819050919050565b611c9e611c9982611696565b611c83565b82525050565b600081905092915050565b82818337600083830152505050565b6000611cca8385611ca4565b9350611cd7838584611caf565b82840190509392505050565b6000611cef8289611c6c565b602082019150611cff8288611c6c565b602082019150611d0f8287611c6c565b602082019150611d1f8286611c8d565b602082019150611d30828486611cbe565b9150819050979650505050505050565b611d498161100f565b82525050565b611d5881610f76565b82525050565b6000608082019050611d736000830187611d40565b611d806020830186611d4f565b611d8d6040830185611d40565b611d9a6060830184611d40565b95945050505050565b60008083356001602003843603038112611dc057611dbf611bf0565b5b80840192508235915067ffffffffffffffff821115611de257611de1611bf5565b5b602083019250602082023603831315611dfe57611dfd611bfa565b5b509250929050565b600060208284031215611e1c57611e1b610f07565b5b6000611e2a84828501610f9a565b91505092915050565b600060208284031215611e4957611e48610f07565b5b6000611e57848285016110b0565b91505092915050565b6000611e6c8287611c6c565b602082019150611e7c8286611c6c565b602082019150611e8c8285611c6c565b602082019150611e9c8284611c8d565b60208201915081905095945050505050565b6000611eb982610f76565b9150611ec483610f76565b9250828202611ed281610f76565b9150808214611ee457611ee3611965565b5b5092915050565b600063ffffffff82169050919050565b6000611f0682611eeb565b9150611f1183611eeb565b9250828201905063ffffffff811115611f2d57611f2c611965565b5b92915050565b600082825260208201905092915050565b7f736967496e64657820746f6f2062696700000000000000000000000000000000600082015250565b6000611f7a601083611f33565b9150611f8582611f44565b602082019050919050565b60006020820190508181036000830152611fa981611f6d565b9050919050565b600080fd5b600080fd5b60008085851115611fce57611fcd611fb0565b5b83861115611fdf57611fde611fb5565b5b6001850283019150848603905094509492505050565b600082905092915050565b600082821b905092915050565b60006120198383611ff5565b82612024813561100f565b925060208210156120645761205f7fffffffffffffffffffffffffffffffffffffffffffffffffffffffffffffffff83602003600802612000565b831692505b505092915050565b60008235600160a00383360303811261208857612087611bf0565b5b80830191505092915050565b600082825260208201905092915050565b6000819050919050565b60006120be60208401846110b0565b905092915050565b6120cf81611087565b82525050565b600080fd5b600080fd5b600080fd5b60008083356001602003843603038112612101576121006120df565b5b83810192508235915060208301925067ffffffffffffffff821115612129576121286120d5565b5b60018202360383131561213f5761213e6120da565b5b509250929050565b600082825260208201905092915050565b60006121648385612147565b9350612171838584611caf565b61217a8361136f565b840190509392505050565b60006040830161219860008401846120af565b6121a560008601826120c6565b506121b360208401846120e4565b85830360208701526121c6838284612158565b925050508091505092915050565b60006121e08383612185565b905092915050565b600082356001604003833603038112612204576122036120df565b5b82810191505092915050565b6000602082019050919050565b60006122298385612094565b93508360208402850161223b846120a5565b8060005b8781101561227f57848403895261225682846121e8565b61226085826121d4565b945061226b83612210565b925060208a0199505060018101905061223f565b50829750879450505050509392505050565b600060208201905081810360008301526122ac81848661221d565b90509392505050565b60006122c082611696565b91506122cb83611696565b92508282039050818111156122e3576122e2611965565b5b92915050565b7f4e487b7100000000000000000000000000000000000000000000000000000000600052603160045260246000fdfea26469706673582212200f836d346b839b8caea139476f958a4c046def00b28a5d53adff34f9c64ad00464736f6c63430008110033",
  "linkReferences": {},
  "deployedLinkReferences": {}
}