{
  "_format": "hh-sol-artifact-1",
  "contractName": "FirmChainImpl",
  "sourceName": "contracts/FirmChainImpl.sol",
  "abi": [
    {
      "anonymous": false,
      "inputs": [
        {
          "indexed": false,
          "internalType": "address",
          "name": "source",
          "type": "address"
        },
        {
          "indexed": false,
          "internalType": "bytes32",
          "name": "forkPoint",
          "type": "bytes32"
        }
      ],
      "name": "ByzantineFault",
      "type": "event"
    },
    {
      "anonymous": false,
      "inputs": [
        {
          "indexed": false,
          "internalType": "address",
          "name": "addr",
          "type": "address"
        }
      ],
      "name": "ContractDoesNotExist",
      "type": "event"
    },
    {
      "anonymous": false,
      "inputs": [
        {
          "indexed": false,
          "internalType": "bytes",
          "name": "retValue",
          "type": "bytes"
        }
      ],
      "name": "ExternalCall",
      "type": "event"
    },
    {
      "anonymous": false,
      "inputs": [
        {
          "indexed": false,
          "internalType": "bytes",
          "name": "retValue",
          "type": "bytes"
        }
      ],
      "name": "ExternalCallFail",
      "type": "event"
    },
    {
      "anonymous": false,
      "inputs": [
        {
          "indexed": false,
          "internalType": "bytes32",
          "name": "blockId",
          "type": "bytes32"
        }
      ],
      "name": "WrongConfirmerSetId",
      "type": "event"
    },
    {
      "inputs": [
        {
          "components": [
            {
              "internalType": "address",
              "name": "confirmer",
              "type": "address"
            },
            {
              "internalType": "bytes32",
              "name": "blockId",
              "type": "bytes32"
            }
          ],
          "internalType": "struct Link",
          "name": "c",
          "type": "tuple"
        }
      ],
      "name": "packLink",
      "outputs": [
        {
          "internalType": "bytes",
          "name": "",
          "type": "bytes"
        }
      ],
      "stateMutability": "pure",
      "type": "function"
    },
    {
      "inputs": [
        {
          "internalType": "address",
          "name": "confirmer",
          "type": "address"
        },
        {
          "internalType": "bytes32",
          "name": "bId",
          "type": "bytes32"
        }
      ],
      "name": "packedLink",
      "outputs": [
        {
          "internalType": "bytes",
          "name": "",
          "type": "bytes"
        }
      ],
      "stateMutability": "pure",
      "type": "function"
    }
  ],
  "bytecode": "0x614390610053600b82828239805160001a607314610046577f4e487b7100000000000000000000000000000000000000000000000000000000600052600060045260246000fd5b30600052607381538281f3fe73000000000000000000000000000000000000000030146080604052600436106101145760003560e01c8063941058ff116100ac578063b9e529311161007b578063b9e529311461035e578063c8e980af1461038e578063ce320982146103b7578063d84a3f79146103e7578063e1e0e5bc1461041057610114565b8063941058ff14610298578063a6473437146102c1578063abebb09a146102fe578063b4dc58f81461032e57610114565b8063289b96de116100e8578063289b96de146101e657806333437f371461020f57806354bea13a1461023f5780635a3636541461026857610114565b80624ff9a9146101195780630133e9f21461014957806302c2010b1461018657806315b52194146101b6575b600080fd5b610133600480360381019061012e9190612185565b610439565b60405161014091906121e7565b60405180910390f35b81801561015557600080fd5b50610170600480360381019061016b919061225f565b61046e565b60405161017d91906122fd565b60405180910390f35b6101a0600480360381019061019b9190612318565b610514565b6040516101ad91906122fd565b60405180910390f35b6101d060048036038101906101cb9190612377565b610529565b6040516101dd9190612434565b60405180910390f35b8180156101f257600080fd5b5061020d60048036038101906102089190612456565b61056a565b005b61022960048036038101906102249190612185565b61066f565b60405161023691906121e7565b60405180910390f35b81801561024b57600080fd5b5061026660048036038101906102619190612536565b6106a4565b005b610282600480360381019061027d9190612185565b6109b8565b60405161028f91906122fd565b60405180910390f35b8180156102a457600080fd5b506102bf60048036038101906102ba91906125da565b6109f8565b005b8180156102cd57600080fd5b506102e860048036038101906102e39190612456565b610b26565b6040516102f591906122fd565b60405180910390f35b61031860048036038101906103139190612636565b610ba9565b6040516103259190612434565b60405180910390f35b61034860048036038101906103439190612185565b610bd5565b60405161035591906122fd565b60405180910390f35b61037860048036038101906103739190612676565b610bf1565b60405161038591906122fd565b60405180910390f35b81801561039a57600080fd5b506103b560048036038101906103b09190612733565b610c7f565b005b6103d160048036038101906103cc9190612185565b610fd4565b6040516103de91906122fd565b60405180910390f35b8180156103f357600080fd5b5061040e600480360381019061040991906125da565b610ff0565b005b81801561041c57600080fd5b5061043760048036038101906104329190612805565b611104565b005b6000836000016104498385610ba9565b60405161045691906128b5565b90815260200160405180910390205490509392505050565b60008361047a90612ae4565b73__$1fd325655463c57248df09018dd18eeef5$__62e22a84909184866040518463ffffffff1660e01b81526004016104b593929190612bf3565b602060405180830381865af41580156104d2573d6000803e3d6000fd5b505050506040513d601f19601f820116820180604052508101906104f69190612c5d565b6104ff57600080fd5b61050a858585611184565b9050949350505050565b6000610521838330610fd4565b905092915050565b606081600001602081019061053e9190612c8a565b8260200135604051602001610554929190612d20565b6040516020818303038152906040529050919050565b3073ffffffffffffffffffffffffffffffffffffffff163373ffffffffffffffffffffffffffffffffffffffff16036105d8576040517f08c379a00000000000000000000000000000000000000000000000000000000081526004016105cf90612dcf565b60405180910390fd5b6000816105e490612ae4565b73__$1fd325655463c57248df09018dd18eeef5$__639f1fc51190916040518263ffffffff1660e01b815260040161061c9190612def565b602060405180830381865af4158015610639573d6000803e3d6000fd5b505050506040513d601f19601f8201168201806040525081019061065d9190612e26565b905061066a83838361146f565b505050565b60008360010161067f8385610ba9565b60405161068c91906128b5565b90815260200160405180910390205490509392505050565b8380600001906106b49190612e62565b60600135428111156106fb576040517f08c379a00000000000000000000000000000000000000000000000000000000081526004016106f290612efc565b60405180910390fd5b6000801b866008015414610744576040517f08c379a000000000000000000000000000000000000000000000000000000000815260040161073b90612f68565b60405180910390fd5b6000801b8580600001906107589190612e62565b600001351461079c576040517f08c379a000000000000000000000000000000000000000000000000000000000815260040161079390612ffa565b60405180910390fd5b846107a6906131ef565b73__$1fd325655463c57248df09018dd18eeef5$__63ede58c8890916040518263ffffffff1660e01b81526004016107de91906133ca565b602060405180830381865af41580156107fb573d6000803e3d6000fd5b505050506040513d601f19601f8201168201806040525081019061081f9190612c5d565b61085e576040517f08c379a00000000000000000000000000000000000000000000000000000000081526004016108559061345e565b60405180910390fd5b6000801b8580600001906108729190612e62565b60400135036108b6576040517f08c379a00000000000000000000000000000000000000000000000000000000081526004016108ad906134ca565b60405180910390fd5b6108c28685858561173c565b600073__$1fd325655463c57248df09018dd18eeef5$__639f1fc5118780600001906108ee9190612e62565b6040518263ffffffff1660e01b815260040161090a9190613657565b602060405180830381865af4158015610927573d6000803e3d6000fd5b505050506040513d601f19601f8201168201806040525081019061094b9190612e26565b9050610958878783611a3f565b7f3100000000000000000000000000000000000000000000000000000000000000876000016109873084610ba9565b60405161099491906128b5565b90815260200160405180910390208190555080876008018190555050505050505050565b600080846002016109c98486610ba9565b6040516109d691906128b5565b9081526020016040518091039020905060008180549050119150509392505050565b3073ffffffffffffffffffffffffffffffffffffffff163373ffffffffffffffffffffffffffffffffffffffff1603610a66576040517f08c379a0000000000000000000000000000000000000000000000000000000008152600401610a5d90612dcf565b60405180910390fd5b6000818060000190610a789190612e62565b610a8190612ae4565b73__$1fd325655463c57248df09018dd18eeef5$__639f1fc51190916040518263ffffffff1660e01b8152600401610ab99190612def565b602060405180830381865af4158015610ad6573d6000803e3d6000fd5b505050506040513d601f19601f82011682018060405250810190610afa9190612e26565b9050610b1683838060000190610b109190612e62565b8361146f565b610b21838383611d49565b505050565b60003073ffffffffffffffffffffffffffffffffffffffff163373ffffffffffffffffffffffffffffffffffffffff1603610b96576040517f08c379a0000000000000000000000000000000000000000000000000000000008152600401610b8d90612dcf565b60405180910390fd5b610ba1838333611184565b905092915050565b60608282604051602001610bbe929190612d20565b604051602081830303815290604052905092915050565b60008060001b610be685858561066f565b141590509392505050565b60008085600201610c028487610ba9565b604051610c0f91906128b5565b9081526020016040518091039020905060005b8180549050811015610c705784828281548110610c4257610c41613679565b5b906000526020600020015403610c5d57600192505050610c77565b8080610c68906136d7565b915050610c22565b5060009150505b949350505050565b858060090160009054906101000a900460ff1615610cd2576040517f08c379a0000000000000000000000000000000000000000000000000000000008152600401610cc99061376b565b60405180910390fd5b600073__$1fd325655463c57248df09018dd18eeef5$__624fa3448787876040518463ffffffff1660e01b8152600401610d0e939291906138af565b602060405180830381865af4158015610d2b573d6000803e3d6000fd5b505050506040513d601f19601f82011682018060405250810190610d4f9190612e26565b9050868060000190610d619190612e62565b604001358114610d7057600080fd5b6000878060000190610d829190612e62565b610d8b90612ae4565b73__$1fd325655463c57248df09018dd18eeef5$__639f1fc51190916040518263ffffffff1660e01b8152600401610dc39190612def565b602060405180830381865af4158015610de0573d6000803e3d6000fd5b505050506040513d601f19601f82011682018060405250810190610e049190612e26565b9050610e108982610514565b610e1957600080fd5b6000848060000190610e2b9190612e62565b610e3490612ae4565b73__$1fd325655463c57248df09018dd18eeef5$__639f1fc51190916040518263ffffffff1660e01b8152600401610e6c9190612def565b602060405180830381865af4158015610e89573d6000803e3d6000fd5b505050506040513d601f19601f82011682018060405250810190610ead9190612e26565b90506000610ebc8b843061066f565b9050818103610eca57600080fd5b6000805b8a8a9050811015610f5b5760008b8b83818110610eee57610eed613679565b5b905060400201803603810190610f049190613931565b9050610f158e868360000151610fd4565b80610f2c5750610f2b8e87878460000151610bf1565b5b15610f4757806020015160ff1683610f44919061396c565b92505b508080610f53906136d7565b915050610ece565b508760ff168161ffff161015610f7057600080fd5b60018c60090160006101000a81548160ff0219169083151502179055507f327eb6f2fa0e808689fea81f6deb77b6075da58a2e95d3e949781d2ec4e7aa923085604051610fbe9291906139c0565b60405180910390a1505050505050505050505050565b60008060001b610fe5858585610439565b141590509392505050565b3073ffffffffffffffffffffffffffffffffffffffff163373ffffffffffffffffffffffffffffffffffffffff160361105e576040517f08c379a000000000000000000000000000000000000000000000000000000000815260040161105590612dcf565b60405180910390fd5b60008180600001906110709190612e62565b61107990612ae4565b73__$1fd325655463c57248df09018dd18eeef5$__639f1fc51190916040518263ffffffff1660e01b81526004016110b19190612def565b602060405180830381865af41580156110ce573d6000803e3d6000fd5b505050506040513d601f19601f820116820180604052508101906110f29190612e26565b90506110ff838383611d49565b505050565b3073ffffffffffffffffffffffffffffffffffffffff163373ffffffffffffffffffffffffffffffffffffffff1614611172576040517f08c379a000000000000000000000000000000000000000000000000000000000815260040161116990613a5b565b60405180910390fd5b61117e8484848461173c565b50505050565b6000838060090160009054906101000a900460ff16156111d9576040517f08c379a00000000000000000000000000000000000000000000000000000000081526004016111d09061376b565b60405180910390fd5b836060013542811115611221576040517f08c379a000000000000000000000000000000000000000000000000000000000815260040161121890612efc565b60405180910390fd5b60008561122d90612ae4565b73__$1fd325655463c57248df09018dd18eeef5$__639f1fc51190916040518263ffffffff1660e01b81526004016112659190612def565b602060405180830381865af4158015611282573d6000803e3d6000fd5b505050506040513d601f19601f820116820180604052508101906112a69190612e26565b90506112b3878287610fd4565b156112f3576040517f08c379a00000000000000000000000000000000000000000000000000000000081526004016112ea90613aed565b60405180910390fd5b6000866000013590506113068882610514565b611345576040517f08c379a000000000000000000000000000000000000000000000000000000000815260040161133c90613b7f565b60405180910390fd5b611350888288610bd5565b156113625761136188878385611ebf565b5b61136d888230610bd5565b1561137f5761137e88878385611ebf565b5b60028081111561139257611391613b9f565b5b8860070160008873ffffffffffffffffffffffffffffffffffffffff1673ffffffffffffffffffffffffffffffffffffffff16815260200190815260200160002060009054906101000a900460ff1660028111156113f3576113f2613b9f565b5b1461145f5780886000016114073385610ba9565b60405161141491906128b5565b90815260200160405180910390208190555081886001016114353384610ba9565b60405161144291906128b5565b908152602001604051809103902081905550600194505050611466565b6000945050505b50509392505050565b828060090160009054906101000a900460ff16156114c2576040517f08c379a00000000000000000000000000000000000000000000000000000000081526004016114b99061376b565b60405180910390fd5b60008360000135905084600801548114611511576040517f08c379a000000000000000000000000000000000000000000000000000000000815260040161150890613c40565b60405180910390fd5b6000805b8660040173__$1fd325655463c57248df09018dd18eeef5$__63d2c7aa2690916040518263ffffffff1660e01b81526004016115519190613c67565b602060405180830381865af415801561156e573d6000803e3d6000fd5b505050506040513d601f19601f820116820180604052508101906115929190613c97565b8110156116595760008760040173__$1fd325655463c57248df09018dd18eeef5$__63ee77acfa9091846040518363ffffffff1660e01b81526004016115d9929190613cd3565b6040805180830381865af41580156115f5573d6000803e3d6000fd5b505050506040513d601f19601f820116820180604052508101906116199190613d76565b905061162a88878360000151610fd4565b1561164557806020015160ff1683611642919061396c565b92505b508080611651906136d7565b915050611515565b508560040173__$1fd325655463c57248df09018dd18eeef5$__63813e08b790916040518263ffffffff1660e01b81526004016116969190613c67565b602060405180830381865af41580156116b3573d6000803e3d6000fd5b505050506040513d601f19601f820116820180604052508101906116d79190613da3565b60ff168161ffff161015611720576040517f08c379a000000000000000000000000000000000000000000000000000000000815260040161171790613e1c565b60405180910390fd5b61172b868630611184565b61173457600080fd5b505050505050565b60005b838390508110156119455760018081111561175d5761175c613b9f565b5b8484838181106117705761176f613679565b5b90506060020160000160208101906117889190613e61565b600181111561179a57611799613b9f565b5b0361183f578460040173__$1fd325655463c57248df09018dd18eeef5$__63aff54ff390918686858181106117d2576117d1613679565b5b9050606002016020016040518363ffffffff1660e01b81526004016117f8929190613ecd565b602060405180830381865af4158015611815573d6000803e3d6000fd5b505050506040513d601f19601f820116820180604052508101906118399190612c5d565b50611932565b6000600181111561185357611852613b9f565b5b84848381811061186657611865613679565b5b905060600201600001602081019061187e9190613e61565b60018111156118905761188f613b9f565b5b03611931578460040173__$1fd325655463c57248df09018dd18eeef5$__630ccd17d390918686858181106118c8576118c7613679565b5b9050606002016020016040518363ffffffff1660e01b81526004016118ee929190613ecd565b602060405180830381865af415801561190b573d6000803e3d6000fd5b505050506040513d601f19601f8201168201806040525081019061192f9190612c5d565b505b5b808061193d906136d7565b91505061173f565b508360040173__$1fd325655463c57248df09018dd18eeef5$__63157871029091836040518363ffffffff1660e01b8152600401611984929190613ef6565b60006040518083038186803b15801561199c57600080fd5b505af41580156119b0573d6000803e3d6000fd5b505050508360040173__$1fd325655463c57248df09018dd18eeef5$__631e28a67290916040518263ffffffff1660e01b81526004016119f09190613c67565b602060405180830381865af4158015611a0d573d6000803e3d6000fd5b505050506040513d601f19601f82011682018060405250810190611a319190612e26565b846003018190555050505050565b60005b828060200190611a529190613f1f565b90508160ff161015611c275736838060200190611a6f9190613f1f565b8360ff16818110611a8357611a82613679565b5b9050602002810190611a959190613f82565b9050611ab2816000016020810190611aad9190612c8a565b611fc9565b15611bc957600080826000016020810190611acd9190612c8a565b73ffffffffffffffffffffffffffffffffffffffff16838060200190611af39190613faa565b604051611b01929190614032565b6000604051808303816000865af19150503d8060008114611b3e576040519150601f19603f3d011682016040523d82523d6000602084013e611b43565b606091505b50915091508115611b8a577fc87957a027b2ccee1573369f6f29a296926f77eec13551ac19fc384f43f611b881604051611b7d9190614095565b60405180910390a1611bc2565b7f1db458ffe01588e51a178519a9b1242e92bcff111b57eedd80e22c0447d3555381604051611bb99190614095565b60405180910390a15b5050611c13565b7f654c0369c5656780245d9df78a6c854e1f2f7e2258b98cccdb415f2a9720ecc3816000016020810190611bfd9190612c8a565b604051611c0a91906140b7565b60405180910390a15b508080611c1f906140d2565b915050611a42565b50818060000190611c389190612e62565b60400135836003015414611ce257611c8c6040518060400160405280600e81526020017f636861696e20636f6e6649643a20000000000000000000000000000000000000815250846003015460001c611fe2565b611ce16040518060400160405280600f81526020017f68656164657220636f6e6649643a200000000000000000000000000000000000815250838060000190611cd59190612e62565b6040013560001c611fe2565b5b818060000190611cf29190612e62565b60400135836003015414611d3b576040517f08c379a0000000000000000000000000000000000000000000000000000000008152600401611d329061416d565b60405180910390fd5b808360080181905550505050565b828060090160009054906101000a900460ff1615611d9c576040517f08c379a0000000000000000000000000000000000000000000000000000000008152600401611d939061376b565b60405180910390fd5b82611da6906131ef565b73__$1fd325655463c57248df09018dd18eeef5$__63ede58c8890916040518263ffffffff1660e01b8152600401611dde91906133ca565b602060405180830381865af4158015611dfb573d6000803e3d6000fd5b505050506040513d601f19601f82011682018060405250810190611e1f9190612c5d565b611e5e576040517f08c379a0000000000000000000000000000000000000000000000000000000008152600401611e55906141ff565b60405180910390fd5b81611e6e8586600801543061066f565b14611eae576040517f08c379a0000000000000000000000000000000000000000000000000000000008152600401611ea5906142b7565b60405180910390fd5b611eb9848484611a3f565b50505050565b60028460070160008573ffffffffffffffffffffffffffffffffffffffff1673ffffffffffffffffffffffffffffffffffffffff16815260200190815260200160002060006101000a81548160ff02191690836002811115611f2457611f23613b9f565b5b0217905550611f3584838386610bf1565b611fc35783600201611f478484610ba9565b604051611f5491906128b5565b90815260200160405180910390208190806001815401808255809150506001900390600052602060002001600090919091909150557f327eb6f2fa0e808689fea81f6deb77b6075da58a2e95d3e949781d2ec4e7aa928383604051611fba9291906139c0565b60405180910390a15b50505050565b600080823b905060008163ffffffff1611915050919050565b61207a8282604051602401611ff892919061432a565b6040516020818303038152906040527fb60e72cc000000000000000000000000000000000000000000000000000000007bffffffffffffffffffffffffffffffffffffffffffffffffffffffff19166020820180517bffffffffffffffffffffffffffffffffffffffffffffffffffffffff838183161783525050505061207e565b5050565b60008151905060006a636f6e736f6c652e6c6f679050602083016000808483855afa5050505050565b6000604051905090565b600080fd5b600080fd5b6000819050919050565b6120ce816120bb565b81146120d957600080fd5b50565b6000813590506120eb816120c5565b92915050565b6000819050919050565b612104816120f1565b811461210f57600080fd5b50565b600081359050612121816120fb565b92915050565b600073ffffffffffffffffffffffffffffffffffffffff82169050919050565b600061215282612127565b9050919050565b61216281612147565b811461216d57600080fd5b50565b60008135905061217f81612159565b92915050565b60008060006060848603121561219e5761219d6120b1565b5b60006121ac868287016120dc565b93505060206121bd86828701612112565b92505060406121ce86828701612170565b9150509250925092565b6121e1816120f1565b82525050565b60006020820190506121fc60008301846121d8565b92915050565b600080fd5b600060a0828403121561221d5761221c612202565b5b81905092915050565b600060ff82169050919050565b61223c81612226565b811461224757600080fd5b50565b60008135905061225981612233565b92915050565b60008060008060808587031215612279576122786120b1565b5b6000612287878288016120dc565b945050602085013567ffffffffffffffff8111156122a8576122a76120b6565b5b6122b487828801612207565b93505060406122c587828801612170565b92505060606122d68782880161224a565b91505092959194509250565b60008115159050919050565b6122f7816122e2565b82525050565b600060208201905061231260008301846122ee565b92915050565b6000806040838503121561232f5761232e6120b1565b5b600061233d858286016120dc565b925050602061234e85828601612112565b9150509250929050565b60006040828403121561236e5761236d612202565b5b81905092915050565b60006040828403121561238d5761238c6120b1565b5b600061239b84828501612358565b91505092915050565b600081519050919050565b600082825260208201905092915050565b60005b838110156123de5780820151818401526020810190506123c3565b60008484015250505050565b6000601f19601f8301169050919050565b6000612406826123a4565b61241081856123af565b93506124208185602086016123c0565b612429816123ea565b840191505092915050565b6000602082019050818103600083015261244e81846123fb565b905092915050565b6000806040838503121561246d5761246c6120b1565b5b600061247b858286016120dc565b925050602083013567ffffffffffffffff81111561249c5761249b6120b6565b5b6124a885828601612207565b9150509250929050565b6000604082840312156124c8576124c7612202565b5b81905092915050565b600080fd5b600080fd5b600080fd5b60008083601f8401126124f6576124f56124d1565b5b8235905067ffffffffffffffff811115612513576125126124d6565b5b60208301915083606082028301111561252f5761252e6124db565b5b9250929050565b600080600080600060808688031215612552576125516120b1565b5b6000612560888289016120dc565b955050602086013567ffffffffffffffff811115612581576125806120b6565b5b61258d888289016124b2565b945050604086013567ffffffffffffffff8111156125ae576125ad6120b6565b5b6125ba888289016124e0565b935093505060606125cd8882890161224a565b9150509295509295909350565b600080604083850312156125f1576125f06120b1565b5b60006125ff858286016120dc565b925050602083013567ffffffffffffffff8111156126205761261f6120b6565b5b61262c858286016124b2565b9150509250929050565b6000806040838503121561264d5761264c6120b1565b5b600061265b85828601612170565b925050602061266c85828601612112565b9150509250929050565b600080600080608085870312156126905761268f6120b1565b5b600061269e878288016120dc565b94505060206126af87828801612112565b93505060406126c087828801612112565b92505060606126d187828801612170565b91505092959194509250565b60008083601f8401126126f3576126f26124d1565b5b8235905067ffffffffffffffff8111156127105761270f6124d6565b5b60208301915083604082028301111561272c5761272b6124db565b5b9250929050565b60008060008060008060a087890312156127505761274f6120b1565b5b600061275e89828a016120dc565b965050602087013567ffffffffffffffff81111561277f5761277e6120b6565b5b61278b89828a016124b2565b955050604087013567ffffffffffffffff8111156127ac576127ab6120b6565b5b6127b889828a016126dd565b945094505060606127cb89828a0161224a565b925050608087013567ffffffffffffffff8111156127ec576127eb6120b6565b5b6127f889828a016124b2565b9150509295509295509295565b6000806000806060858703121561281f5761281e6120b1565b5b600061282d878288016120dc565b945050602085013567ffffffffffffffff81111561284e5761284d6120b6565b5b61285a878288016124e0565b9350935050604061286d8782880161224a565b91505092959194509250565b600081905092915050565b600061288f826123a4565b6128998185612879565b93506128a98185602086016123c0565b80840191505092915050565b60006128c18284612884565b915081905092915050565b600080fd5b7f4e487b7100000000000000000000000000000000000000000000000000000000600052604160045260246000fd5b612909826123ea565b810181811067ffffffffffffffff82111715612928576129276128d1565b5b80604052505050565b600061293b6120a7565b90506129478282612900565b919050565b600080fd5b6000819050919050565b61296481612951565b811461296f57600080fd5b50565b6000813590506129818161295b565b92915050565b600080fd5b600067ffffffffffffffff8211156129a7576129a66128d1565b5b6129b0826123ea565b9050602081019050919050565b82818337600083830152505050565b60006129df6129da8461298c565b612931565b9050828152602081018484840111156129fb576129fa612987565b5b612a068482856129bd565b509392505050565b600082601f830112612a2357612a226124d1565b5b8135612a338482602086016129cc565b91505092915050565b600060a08284031215612a5257612a516128cc565b5b612a5c60a0612931565b90506000612a6c84828501612112565b6000830152506020612a8084828501612112565b6020830152506040612a9484828501612112565b6040830152506060612aa884828501612972565b606083015250608082013567ffffffffffffffff811115612acc57612acb61294c565b5b612ad884828501612a0e565b60808301525092915050565b6000612af03683612a3c565b9050919050565b612b00816120f1565b82525050565b612b0f81612951565b82525050565b600082825260208201905092915050565b6000612b31826123a4565b612b3b8185612b15565b9350612b4b8185602086016123c0565b612b54816123ea565b840191505092915050565b600060a083016000830151612b776000860182612af7565b506020830151612b8a6020860182612af7565b506040830151612b9d6040860182612af7565b506060830151612bb06060860182612b06565b5060808301518482036080860152612bc88282612b26565b9150508091505092915050565b612bde81612226565b82525050565b612bed81612147565b82525050565b60006060820190508181036000830152612c0d8186612b5f565b9050612c1c6020830185612bd5565b612c296040830184612be4565b949350505050565b612c3a816122e2565b8114612c4557600080fd5b50565b600081519050612c5781612c31565b92915050565b600060208284031215612c7357612c726120b1565b5b6000612c8184828501612c48565b91505092915050565b600060208284031215612ca057612c9f6120b1565b5b6000612cae84828501612170565b91505092915050565b60008160601b9050919050565b6000612ccf82612cb7565b9050919050565b6000612ce182612cc4565b9050919050565b612cf9612cf482612147565b612cd6565b82525050565b6000819050919050565b612d1a612d15826120f1565b612cff565b82525050565b6000612d2c8285612ce8565b601482019150612d3c8284612d09565b6020820191508190509392505050565b600082825260208201905092915050565b7f546869732066756e6374696f6e2063616e6e6f742062652063616c6c6564206260008201527f7920636f6e747261637420697473656c66000000000000000000000000000000602082015250565b6000612db9603183612d4c565b9150612dc482612d5d565b604082019050919050565b60006020820190508181036000830152612de881612dac565b9050919050565b60006020820190508181036000830152612e098184612b5f565b905092915050565b600081519050612e20816120fb565b92915050565b600060208284031215612e3c57612e3b6120b1565b5b6000612e4a84828501612e11565b91505092915050565b600080fd5b600080fd5b600080fd5b60008235600160a003833603038112612e7e57612e7d612e53565b5b80830191505092915050565b7f426c6f636b2074696d657374616d70206973206c61746572207468616e20637560008201527f7272656e742074696d6500000000000000000000000000000000000000000000602082015250565b6000612ee6602a83612d4c565b9150612ef182612e8a565b604082019050919050565b60006020820190508181036000830152612f1581612ed9565b9050919050565b7f436861696e20616c726561647920696e697469616c697a656400000000000000600082015250565b6000612f52601983612d4c565b9150612f5d82612f1c565b602082019050919050565b60006020820190508181036000830152612f8181612f45565b9050919050565b7f70726576426c6f636b49642068617320746f2062652073657420746f2030206960008201527f6e2067656e6573697320626c6f636b0000000000000000000000000000000000602082015250565b6000612fe4602f83612d4c565b9150612fef82612f88565b604082019050919050565b6000602082019050818103600083015261301381612fd7565b9050919050565b600067ffffffffffffffff821115613035576130346128d1565b5b602082029050602081019050919050565b60006040828403121561305c5761305b6128cc565b5b6130666040612931565b9050600061307684828501612170565b600083015250602082013567ffffffffffffffff81111561309a5761309961294c565b5b6130a684828501612a0e565b60208301525092915050565b60006130c56130c08461301a565b612931565b905080838252602082019050602084028301858111156130e8576130e76124db565b5b835b8181101561312f57803567ffffffffffffffff81111561310d5761310c6124d1565b5b80860161311a8982613046565b855260208501945050506020810190506130ea565b5050509392505050565b600082601f83011261314e5761314d6124d1565b5b813561315e8482602086016130b2565b91505092915050565b60006040828403121561317d5761317c6128cc565b5b6131876040612931565b9050600082013567ffffffffffffffff8111156131a7576131a661294c565b5b6131b384828501612a3c565b600083015250602082013567ffffffffffffffff8111156131d7576131d661294c565b5b6131e384828501613139565b60208301525092915050565b60006131fb3683613167565b9050919050565b600060a08301600083015161321a6000860182612af7565b50602083015161322d6020860182612af7565b5060408301516132406040860182612af7565b5060608301516132536060860182612b06565b506080830151848203608086015261326b8282612b26565b9150508091505092915050565b600081519050919050565b600082825260208201905092915050565b6000819050602082019050919050565b6132ad81612147565b82525050565b60006040830160008301516132cb60008601826132a4565b50602083015184820360208601526132e38282612b26565b9150508091505092915050565b60006132fc83836132b3565b905092915050565b6000602082019050919050565b600061331c82613278565b6133268185613283565b93508360208202850161333885613294565b8060005b85811015613374578484038952815161335585826132f0565b945061336083613304565b925060208a0199505060018101905061333c565b50829750879550505050505092915050565b600060408301600083015184820360008601526133a38282613202565b915050602083015184820360208601526133bd8282613311565b9150508091505092915050565b600060208201905081810360008301526133e48184613386565b905092915050565b7f50617373656420626c6f636b20626f647920646f6573206e6f74206d6174636860008201527f206865616465722e626c6f636b426f6479496400000000000000000000000000602082015250565b6000613448603383612d4c565b9150613453826133ec565b604082019050919050565b600060208201905081810360008301526134778161343b565b9050919050565b7f436f6e6669726d6572207365742068617320746f206265207365740000000000600082015250565b60006134b4601b83612d4c565b91506134bf8261347e565b602082019050919050565b600060208201905081810360008301526134e3816134a7565b9050919050565b60006134f96020840184612112565b905092915050565b60006135106020840184612972565b905092915050565b600080fd5b600080fd5b600080fd5b6000808335600160200384360303811261354457613543613522565b5b83810192508235915060208301925067ffffffffffffffff82111561356c5761356b613518565b5b6001820236038313156135825761358161351d565b5b509250929050565b60006135968385612b15565b93506135a38385846129bd565b6135ac836123ea565b840190509392505050565b600060a083016135ca60008401846134ea565b6135d76000860182612af7565b506135e560208401846134ea565b6135f26020860182612af7565b5061360060408401846134ea565b61360d6040860182612af7565b5061361b6060840184613501565b6136286060860182612b06565b506136366080840184613527565b858303608087015261364983828461358a565b925050508091505092915050565b6000602082019050818103600083015261367181846135b7565b905092915050565b7f4e487b7100000000000000000000000000000000000000000000000000000000600052603260045260246000fd5b7f4e487b7100000000000000000000000000000000000000000000000000000000600052601160045260246000fd5b60006136e282612951565b91507fffffffffffffffffffffffffffffffffffffffffffffffffffffffffffffffff8203613714576137136136a8565b5b600182019050919050565b7f4661756c74207761732064657465637465640000000000000000000000000000600082015250565b6000613755601283612d4c565b91506137608261371f565b602082019050919050565b6000602082019050818103600083015261378481613748565b9050919050565b600082825260208201905092915050565b6000819050919050565b60006137b56020840184612170565b905092915050565b60006137cc602084018461224a565b905092915050565b6137dd81612226565b82525050565b604082016137f460008301836137a6565b61380160008501826132a4565b5061380f60208301836137bd565b61381c60208501826137d4565b50505050565b600061382e83836137e3565b60408301905092915050565b600082905092915050565b6000604082019050919050565b600061385e838561378b565b93506138698261379c565b8060005b858110156138a25761387f828461383a565b6138898882613822565b975061389483613845565b92505060018101905061386d565b5085925050509392505050565b600060408201905081810360008301526138ca818587613852565b90506138d96020830184612bd5565b949350505050565b6000604082840312156138f7576138f66128cc565b5b6139016040612931565b9050600061391184828501612170565b60008301525060206139258482850161224a565b60208301525092915050565b600060408284031215613947576139466120b1565b5b6000613955848285016138e1565b91505092915050565b600061ffff82169050919050565b60006139778261395e565b91506139828361395e565b9250828201905061ffff81111561399c5761399b6136a8565b5b92915050565b6139ab81612147565b82525050565b6139ba816120f1565b82525050565b60006040820190506139d560008301856139a2565b6139e260208301846139b1565b9392505050565b7f546869732066756e6374696f6e2063616e206f6e6c792062652063616c6c656460008201527f20627920636f6e747261637420697473656c6600000000000000000000000000602082015250565b6000613a45603383612d4c565b9150613a50826139e9565b604082019050919050565b60006020820190508181036000830152613a7481613a38565b9050919050565b7f426c6f636b20616c726561647920636f6e6669726d656420627920746869732060008201527f636f6e6669726d65720000000000000000000000000000000000000000000000602082015250565b6000613ad7602983612d4c565b9150613ae282613a7b565b604082019050919050565b60006020820190508181036000830152613b0681613aca565b9050919050565b7f50726576696f757320626c6f636b2068617320746f2062652066696e616c697a60008201527f65642e0000000000000000000000000000000000000000000000000000000000602082015250565b6000613b69602383612d4c565b9150613b7482613b0d565b604082019050919050565b60006020820190508181036000830152613b9881613b5c565b9050919050565b7f4e487b7100000000000000000000000000000000000000000000000000000000600052602160045260246000fd5b7f50726576696f757320626c6f636b2068617320746f2062652063757272656e7460008201527f205f686561640000000000000000000000000000000000000000000000000000602082015250565b6000613c2a602683612d4c565b9150613c3582613bce565b604082019050919050565b60006020820190508181036000830152613c5981613c1d565b9050919050565b8082525050565b6000602082019050613c7c6000830184613c60565b92915050565b600081519050613c918161295b565b92915050565b600060208284031215613cad57613cac6120b1565b5b6000613cbb84828501613c82565b91505092915050565b613ccd81612951565b82525050565b6000604082019050613ce86000830185613c60565b613cf56020830184613cc4565b9392505050565b600081519050613d0b81612159565b92915050565b600081519050613d2081612233565b92915050565b600060408284031215613d3c57613d3b6128cc565b5b613d466040612931565b90506000613d5684828501613cfc565b6000830152506020613d6a84828501613d11565b60208301525092915050565b600060408284031215613d8c57613d8b6120b1565b5b6000613d9a84828501613d26565b91505092915050565b600060208284031215613db957613db86120b1565b5b6000613dc784828501613d11565b91505092915050565b7f4e6f7420656e6f75676820636f6e6669726d6174696f6e730000000000000000600082015250565b6000613e06601883612d4c565b9150613e1182613dd0565b602082019050919050565b60006020820190508181036000830152613e3581613df9565b9050919050565b60028110613e4957600080fd5b50565b600081359050613e5b81613e3c565b92915050565b600060208284031215613e7757613e766120b1565b5b6000613e8584828501613e4c565b91505092915050565b60408201613e9f60008301836137a6565b613eac60008501826132a4565b50613eba60208301836137bd565b613ec760208501826137d4565b50505050565b6000606082019050613ee26000830185613c60565b613eef6020830184613e8e565b9392505050565b6000604082019050613f0b6000830185613c60565b613f186020830184612bd5565b9392505050565b60008083356001602003843603038112613f3c57613f3b612e53565b5b80840192508235915067ffffffffffffffff821115613f5e57613f5d612e58565b5b602083019250602082023603831315613f7a57613f79612e5d565b5b509250929050565b600082356001604003833603038112613f9e57613f9d612e53565b5b80830191505092915050565b60008083356001602003843603038112613fc757613fc6612e53565b5b80840192508235915067ffffffffffffffff821115613fe957613fe8612e58565b5b60208301925060018202360383131561400557614004612e5d565b5b509250929050565b60006140198385612879565b93506140268385846129bd565b82840190509392505050565b600061403f82848661400d565b91508190509392505050565b600082825260208201905092915050565b6000614067826123a4565b614071818561404b565b93506140818185602086016123c0565b61408a816123ea565b840191505092915050565b600060208201905081810360008301526140af818461405c565b905092915050565b60006020820190506140cc60008301846139a2565b92915050565b60006140dd82612226565b915060ff82036140f0576140ef6136a8565b5b600182019050919050565b7f436f6e6669726d65722073657420636f6d707574656420646f6573206e6f742060008201527f6d61746368206465636c61726564000000000000000000000000000000000000602082015250565b6000614157602e83612d4c565b9150614162826140fb565b604082019050919050565b600060208201905081810360008301526141868161414a565b9050919050565b7f50617373656420626c6f636b20626f647920646f6573206e6f74206d6174636860008201527f206865616465722e626c6f636b44617461496400000000000000000000000000602082015250565b60006141e9603383612d4c565b91506141f48261418d565b604082019050919050565b60006020820190508181036000830152614218816141dc565b9050919050565b7f596f752063616e206f6e6c792065786563757465206120626c6f636b2077686960008201527f636820657874656e6473207468652063757272656e74206865616420626c6f6360208201527f6b20616e64206973206e6f74206578656375746564207965742e000000000000604082015250565b60006142a1605a83612d4c565b91506142ac8261421f565b606082019050919050565b600060208201905081810360008301526142d081614294565b9050919050565b600081519050919050565b60006142ed826142d7565b6142f78185612d4c565b93506143078185602086016123c0565b614310816123ea565b840191505092915050565b61432481612951565b82525050565b6000604082019050818103600083015261434481856142e2565b9050614353602083018461431b565b939250505056fea26469706673582212207aff4d96ccd912a2ca8eb271f24e994f36e31868153616c712ed8a47fbe95cb164736f6c63430008110033",
  "linkReferences": {
    "contracts/FirmChainAbi.sol": {
      "FirmChainAbi": [
        {
          "length": 20,
          "start": 1231
        },
        {
          "length": 20,
          "start": 1593
        },
        {
          "length": 20,
          "start": 2043
        },
        {
          "length": 20,
          "start": 2329
        },
        {
          "length": 20,
          "start": 2774
        },
        {
          "length": 20,
          "start": 3369
        },
        {
          "length": 20,
          "start": 3552
        },
        {
          "length": 20,
          "start": 3721
        },
        {
          "length": 20,
          "start": 4302
        },
        {
          "length": 20,
          "start": 4738
        },
        {
          "length": 20,
          "start": 5486
        },
        {
          "length": 20,
          "start": 5620
        },
        {
          "length": 20,
          "start": 5811
        },
        {
          "length": 20,
          "start": 6136
        },
        {
          "length": 20,
          "start": 6382
        },
        {
          "length": 20,
          "start": 6559
        },
        {
          "length": 20,
          "start": 6669
        },
        {
          "length": 20,
          "start": 7675
        }
      ]
    }
  },
  "deployedLinkReferences": {
    "contracts/FirmChainAbi.sol": {
      "FirmChainAbi": [
        {
          "length": 20,
          "start": 1148
        },
        {
          "length": 20,
          "start": 1510
        },
        {
          "length": 20,
          "start": 1960
        },
        {
          "length": 20,
          "start": 2246
        },
        {
          "length": 20,
          "start": 2691
        },
        {
          "length": 20,
          "start": 3286
        },
        {
          "length": 20,
          "start": 3469
        },
        {
          "length": 20,
          "start": 3638
        },
        {
          "length": 20,
          "start": 4219
        },
        {
          "length": 20,
          "start": 4655
        },
        {
          "length": 20,
          "start": 5403
        },
        {
          "length": 20,
          "start": 5537
        },
        {
          "length": 20,
          "start": 5728
        },
        {
          "length": 20,
          "start": 6053
        },
        {
          "length": 20,
          "start": 6299
        },
        {
          "length": 20,
          "start": 6476
        },
        {
          "length": 20,
          "start": 6586
        },
        {
          "length": 20,
          "start": 7592
        }
      ]
    }
  }
}