{
  "_format": "hh-sol-artifact-1",
  "contractName": "FirmChain",
  "sourceName": "contracts/FirmChain.sol",
  "abi": [
    {
      "inputs": [
        {
          "components": [
            {
              "components": [
                {
                  "internalType": "bytes32",
                  "name": "prevBlockId",
                  "type": "bytes32"
                },
                {
                  "internalType": "bytes32",
                  "name": "blockBodyId",
                  "type": "bytes32"
                },
                {
                  "internalType": "bytes32",
                  "name": "confirmerSetId",
                  "type": "bytes32"
                },
                {
                  "internalType": "uint256",
                  "name": "timestamp",
                  "type": "uint256"
                },
                {
                  "internalType": "bytes",
                  "name": "sigs",
                  "type": "bytes"
                }
              ],
              "internalType": "struct BlockHeader",
              "name": "header",
              "type": "tuple"
            },
            {
              "components": [
                {
                  "internalType": "address",
                  "name": "addr",
                  "type": "address"
                },
                {
                  "internalType": "bytes",
                  "name": "cdata",
                  "type": "bytes"
                }
              ],
              "internalType": "struct Call[]",
              "name": "calls",
              "type": "tuple[]"
            }
          ],
          "internalType": "struct Block",
          "name": "genesisBl",
          "type": "tuple"
        },
        {
          "components": [
            {
              "internalType": "enum ConfirmerOpId",
              "name": "opId",
              "type": "uint8"
            },
            {
              "components": [
                {
                  "internalType": "address",
                  "name": "addr",
                  "type": "address"
                },
                {
                  "internalType": "uint8",
                  "name": "weight",
                  "type": "uint8"
                }
              ],
              "internalType": "struct Confirmer",
              "name": "conf",
              "type": "tuple"
            }
          ],
          "internalType": "struct ConfirmerOp[]",
          "name": "confirmerOps",
          "type": "tuple[]"
        },
        {
          "internalType": "uint8",
          "name": "threshold",
          "type": "uint8"
        }
      ],
      "stateMutability": "nonpayable",
      "type": "constructor"
    },
    {
      "anonymous": false,
      "inputs": [
        {
          "indexed": false,
          "internalType": "address",
          "name": "source",
          "type": "address"
        },
        {
          "indexed": false,
          "internalType": "bytes32",
          "name": "forkPoint",
          "type": "bytes32"
        }
      ],
      "name": "ByzantineFault",
      "type": "event"
    },
    {
      "anonymous": false,
      "inputs": [
        {
          "indexed": false,
          "internalType": "address",
          "name": "code",
          "type": "address"
        }
      ],
      "name": "ConfirmFail",
      "type": "event"
    },
    {
      "inputs": [
        {
          "components": [
            {
              "internalType": "bytes32",
              "name": "prevBlockId",
              "type": "bytes32"
            },
            {
              "internalType": "bytes32",
              "name": "blockBodyId",
              "type": "bytes32"
            },
            {
              "internalType": "bytes32",
              "name": "confirmerSetId",
              "type": "bytes32"
            },
            {
              "internalType": "uint256",
              "name": "timestamp",
              "type": "uint256"
            },
            {
              "internalType": "bytes",
              "name": "sigs",
              "type": "bytes"
            }
          ],
          "internalType": "struct BlockHeader",
          "name": "header",
          "type": "tuple"
        }
      ],
      "name": "confirm",
      "outputs": [
        {
          "internalType": "bool",
          "name": "",
          "type": "bool"
        }
      ],
      "stateMutability": "nonpayable",
      "type": "function"
    },
    {
      "inputs": [
        {
          "components": [
            {
              "components": [
                {
                  "internalType": "bytes32",
                  "name": "prevBlockId",
                  "type": "bytes32"
                },
                {
                  "internalType": "bytes32",
                  "name": "blockBodyId",
                  "type": "bytes32"
                },
                {
                  "internalType": "bytes32",
                  "name": "confirmerSetId",
                  "type": "bytes32"
                },
                {
                  "internalType": "uint256",
                  "name": "timestamp",
                  "type": "uint256"
                },
                {
                  "internalType": "bytes",
                  "name": "sigs",
                  "type": "bytes"
                }
              ],
              "internalType": "struct BlockHeader",
              "name": "header",
              "type": "tuple"
            },
            {
              "components": [
                {
                  "internalType": "address",
                  "name": "addr",
                  "type": "address"
                },
                {
                  "internalType": "bytes",
                  "name": "cdata",
                  "type": "bytes"
                }
              ],
              "internalType": "struct Call[]",
              "name": "calls",
              "type": "tuple[]"
            }
          ],
          "internalType": "struct Block",
          "name": "bl",
          "type": "tuple"
        }
      ],
      "name": "execute",
      "outputs": [],
      "stateMutability": "nonpayable",
      "type": "function"
    },
    {
      "inputs": [
        {
          "components": [
            {
              "internalType": "bytes32",
              "name": "prevBlockId",
              "type": "bytes32"
            },
            {
              "internalType": "bytes32",
              "name": "blockBodyId",
              "type": "bytes32"
            },
            {
              "internalType": "bytes32",
              "name": "confirmerSetId",
              "type": "bytes32"
            },
            {
              "internalType": "uint256",
              "name": "timestamp",
              "type": "uint256"
            },
            {
              "internalType": "bytes",
              "name": "sigs",
              "type": "bytes"
            }
          ],
          "internalType": "struct BlockHeader",
          "name": "header",
          "type": "tuple"
        },
        {
          "internalType": "address",
          "name": "signatory",
          "type": "address"
        },
        {
          "internalType": "uint8",
          "name": "sigIndex",
          "type": "uint8"
        }
      ],
      "name": "extConfirm",
      "outputs": [
        {
          "internalType": "bool",
          "name": "",
          "type": "bool"
        }
      ],
      "stateMutability": "nonpayable",
      "type": "function"
    },
    {
      "inputs": [
        {
          "components": [
            {
              "internalType": "bytes32",
              "name": "prevBlockId",
              "type": "bytes32"
            },
            {
              "internalType": "bytes32",
              "name": "blockBodyId",
              "type": "bytes32"
            },
            {
              "internalType": "bytes32",
              "name": "confirmerSetId",
              "type": "bytes32"
            },
            {
              "internalType": "uint256",
              "name": "timestamp",
              "type": "uint256"
            },
            {
              "internalType": "bytes",
              "name": "sigs",
              "type": "bytes"
            }
          ],
          "internalType": "struct BlockHeader",
          "name": "header",
          "type": "tuple"
        }
      ],
      "name": "finalize",
      "outputs": [],
      "stateMutability": "nonpayable",
      "type": "function"
    },
    {
      "inputs": [
        {
          "components": [
            {
              "components": [
                {
                  "internalType": "bytes32",
                  "name": "prevBlockId",
                  "type": "bytes32"
                },
                {
                  "internalType": "bytes32",
                  "name": "blockBodyId",
                  "type": "bytes32"
                },
                {
                  "internalType": "bytes32",
                  "name": "confirmerSetId",
                  "type": "bytes32"
                },
                {
                  "internalType": "uint256",
                  "name": "timestamp",
                  "type": "uint256"
                },
                {
                  "internalType": "bytes",
                  "name": "sigs",
                  "type": "bytes"
                }
              ],
              "internalType": "struct BlockHeader",
              "name": "header",
              "type": "tuple"
            },
            {
              "components": [
                {
                  "internalType": "address",
                  "name": "addr",
                  "type": "address"
                },
                {
                  "internalType": "bytes",
                  "name": "cdata",
                  "type": "bytes"
                }
              ],
              "internalType": "struct Call[]",
              "name": "calls",
              "type": "tuple[]"
            }
          ],
          "internalType": "struct Block",
          "name": "bl",
          "type": "tuple"
        }
      ],
      "name": "finalizeAndExecute",
      "outputs": [],
      "stateMutability": "nonpayable",
      "type": "function"
    },
    {
      "inputs": [
        {
          "components": [
            {
              "internalType": "enum ConfirmerOpId",
              "name": "opId",
              "type": "uint8"
            },
            {
              "components": [
                {
                  "internalType": "address",
                  "name": "addr",
                  "type": "address"
                },
                {
                  "internalType": "uint8",
                  "name": "weight",
                  "type": "uint8"
                }
              ],
              "internalType": "struct Confirmer",
              "name": "conf",
              "type": "tuple"
            }
          ],
          "internalType": "struct ConfirmerOp[]",
          "name": "ops",
          "type": "tuple[]"
        },
        {
          "internalType": "uint8",
          "name": "threshold",
          "type": "uint8"
        }
      ],
      "name": "updateConfirmerSet",
      "outputs": [],
      "stateMutability": "nonpayable",
      "type": "function"
    }
  ],
  "bytecode": "0x60806040523480156200001157600080fd5b5060405162001ca238038062001ca28339818101604052810190620000379190620007df565b600073__$5ffd2747969ed11f82577da0ca10bfec82$__6354bea13a90918585856040518563ffffffff1660e01b815260040162000079949392919062000cae565b60006040518083038186803b1580156200009257600080fd5b505af4158015620000a7573d6000803e3d6000fd5b5050505050505062000d09565b6000604051905090565b600080fd5b600080fd5b600080fd5b6000601f19601f8301169050919050565b7f4e487b7100000000000000000000000000000000000000000000000000000000600052604160045260246000fd5b6200011882620000cd565b810181811067ffffffffffffffff821117156200013a5762000139620000de565b5b80604052505050565b60006200014f620000b4565b90506200015d82826200010d565b919050565b600080fd5b6000819050919050565b6200017c8162000167565b81146200018857600080fd5b50565b6000815190506200019c8162000171565b92915050565b6000819050919050565b620001b781620001a2565b8114620001c357600080fd5b50565b600081519050620001d781620001ac565b92915050565b600080fd5b600080fd5b600067ffffffffffffffff821115620002055762000204620000de565b5b6200021082620000cd565b9050602081019050919050565b60005b838110156200023d57808201518184015260208101905062000220565b60008484015250505050565b6000620002606200025a84620001e7565b62000143565b9050828152602081018484840111156200027f576200027e620001e2565b5b6200028c8482856200021d565b509392505050565b600082601f830112620002ac57620002ab620001dd565b5b8151620002be84826020860162000249565b91505092915050565b600060a08284031215620002e057620002df620000c8565b5b620002ec60a062000143565b90506000620002fe848285016200018b565b600083015250602062000314848285016200018b565b60208301525060406200032a848285016200018b565b60408301525060606200034084828501620001c6565b606083015250608082015167ffffffffffffffff81111562000367576200036662000162565b5b620003758482850162000294565b60808301525092915050565b600067ffffffffffffffff8211156200039f576200039e620000de565b5b602082029050602081019050919050565b600080fd5b600073ffffffffffffffffffffffffffffffffffffffff82169050919050565b6000620003e282620003b5565b9050919050565b620003f481620003d5565b81146200040057600080fd5b50565b6000815190506200041481620003e9565b92915050565b600060408284031215620004335762000432620000c8565b5b6200043f604062000143565b90506000620004518482850162000403565b600083015250602082015167ffffffffffffffff81111562000478576200047762000162565b5b620004868482850162000294565b60208301525092915050565b6000620004a9620004a38462000381565b62000143565b90508083825260208201905060208402830185811115620004cf57620004ce620003b0565b5b835b818110156200051d57805167ffffffffffffffff811115620004f857620004f7620001dd565b5b8086016200050789826200041a565b85526020850194505050602081019050620004d1565b5050509392505050565b600082601f8301126200053f576200053e620001dd565b5b81516200055184826020860162000492565b91505092915050565b600060408284031215620005735762000572620000c8565b5b6200057f604062000143565b9050600082015167ffffffffffffffff811115620005a257620005a162000162565b5b620005b084828501620002c7565b600083015250602082015167ffffffffffffffff811115620005d757620005d662000162565b5b620005e58482850162000527565b60208301525092915050565b600067ffffffffffffffff8211156200060f576200060e620000de565b5b602082029050602081019050919050565b600281106200062e57600080fd5b50565b600081519050620006428162000620565b92915050565b600060ff82169050919050565b620006608162000648565b81146200066c57600080fd5b50565b600081519050620006808162000655565b92915050565b6000604082840312156200069f576200069e620000c8565b5b620006ab604062000143565b90506000620006bd8482850162000403565b6000830152506020620006d3848285016200066f565b60208301525092915050565b600060608284031215620006f857620006f7620000c8565b5b62000704604062000143565b90506000620007168482850162000631565b60008301525060206200072c8482850162000686565b60208301525092915050565b60006200074f6200074984620005f1565b62000143565b90508083825260208201905060608402830185811115620007755762000774620003b0565b5b835b81811015620007a257806200078d8882620006df565b84526020840193505060608101905062000777565b5050509392505050565b600082601f830112620007c457620007c3620001dd565b5b8151620007d684826020860162000738565b91505092915050565b600080600060608486031215620007fb57620007fa620000be565b5b600084015167ffffffffffffffff8111156200081c576200081b620000c3565b5b6200082a868287016200055a565b935050602084015167ffffffffffffffff8111156200084e576200084d620000c3565b5b6200085c86828701620007ac565b92505060406200086f868287016200066f565b9150509250925092565b8082525050565b6200088b8162000167565b82525050565b6200089c81620001a2565b82525050565b600081519050919050565b600082825260208201905092915050565b6000620008cb82620008a2565b620008d78185620008ad565b9350620008e98185602086016200021d565b620008f481620000cd565b840191505092915050565b600060a08301600083015162000919600086018262000880565b5060208301516200092e602086018262000880565b50604083015162000943604086018262000880565b50606083015162000958606086018262000891565b5060808301518482036080860152620009728282620008be565b9150508091505092915050565b600081519050919050565b600082825260208201905092915050565b6000819050602082019050919050565b620009b681620003d5565b82525050565b6000604083016000830151620009d66000860182620009ab565b5060208301518482036020860152620009f08282620008be565b9150508091505092915050565b600062000a0b8383620009bc565b905092915050565b6000602082019050919050565b600062000a2d826200097f565b62000a3981856200098a565b93508360208202850162000a4d856200099b565b8060005b8581101562000a8f578484038952815162000a6d8582620009fd565b945062000a7a8362000a13565b925060208a0199505060018101905062000a51565b50829750879550505050505092915050565b6000604083016000830151848203600086015262000ac08282620008ff565b9150506020830151848203602086015262000adc828262000a20565b9150508091505092915050565b600081519050919050565b600082825260208201905092915050565b6000819050602082019050919050565b7f4e487b7100000000000000000000000000000000000000000000000000000000600052602160045260246000fd5b6002811062000b585762000b5762000b15565b5b50565b600081905062000b6b8262000b44565b919050565b600062000b7d8262000b5b565b9050919050565b62000b8f8162000b70565b82525050565b62000ba08162000648565b82525050565b60408201600082015162000bbe6000850182620009ab565b50602082015162000bd3602085018262000b95565b50505050565b60608201600082015162000bf1600085018262000b84565b50602082015162000c06602085018262000ba6565b50505050565b600062000c1a838362000bd9565b60608301905092915050565b6000602082019050919050565b600062000c408262000ae9565b62000c4c818562000af4565b935062000c598362000b05565b8060005b8381101562000c9057815162000c74888262000c0c565b975062000c818362000c26565b92505060018101905062000c5d565b5085935050505092915050565b62000ca88162000648565b82525050565b600060808201905062000cc5600083018762000879565b818103602083015262000cd9818662000aa1565b9050818103604083015262000cef818562000c33565b905062000d00606083018462000c9d565b95945050505050565b610f898062000d196000396000f3fe608060405234801561001057600080fd5b50600436106100625760003560e01c80636abf04701461006757806382d8997314610083578063e80dee91146100b3578063e814aada146100e3578063e9d62d40146100ff578063f7bf6fe51461011b575b600080fd5b610081600480360381019061007c9190610437565b610137565b005b61009d60048036038101906100989190610536565b6101a6565b6040516100aa91906105c0565b60405180910390f35b6100cd60048036038101906100c891906105db565b610231565b6040516100da91906105c0565b60405180910390f35b6100fd60048036038101906100f891906105db565b6102b6565b005b61011960048036038101906101149190610437565b610325565b005b61013560048036038101906101309190610689565b610394565b005b600073__$5ffd2747969ed11f82577da0ca10bfec82$__63941058ff9091836040518363ffffffff1660e01b8152600401610173929190610b46565b60006040518083038186803b15801561018b57600080fd5b505af415801561019f573d6000803e3d6000fd5b5050505050565b60008073__$5ffd2747969ed11f82577da0ca10bfec82$__630133e9f290918686866040518563ffffffff1660e01b81526004016101e79493929190610c34565b602060405180830381865af4158015610204573d6000803e3d6000fd5b505050506040513d601f19601f820116820180604052508101906102289190610cac565b90509392505050565b60008073__$5ffd2747969ed11f82577da0ca10bfec82$__63a64734379091846040518363ffffffff1660e01b815260040161026e929190610cd9565b602060405180830381865af415801561028b573d6000803e3d6000fd5b505050506040513d601f19601f820116820180604052508101906102af9190610cac565b9050919050565b600073__$5ffd2747969ed11f82577da0ca10bfec82$__63289b96de9091836040518363ffffffff1660e01b81526004016102f2929190610cd9565b60006040518083038186803b15801561030a57600080fd5b505af415801561031e573d6000803e3d6000fd5b5050505050565b600073__$5ffd2747969ed11f82577da0ca10bfec82$__63d84a3f799091836040518363ffffffff1660e01b8152600401610361929190610b46565b60006040518083038186803b15801561037957600080fd5b505af415801561038d573d6000803e3d6000fd5b5050505050565b600073__$5ffd2747969ed11f82577da0ca10bfec82$__63e1e0e5bc90918585856040518563ffffffff1660e01b81526004016103d49493929190610f13565b60006040518083038186803b1580156103ec57600080fd5b505af4158015610400573d6000803e3d6000fd5b50505050505050565b600080fd5b600080fd5b600080fd5b60006040828403121561042e5761042d610413565b5b81905092915050565b60006020828403121561044d5761044c610409565b5b600082013567ffffffffffffffff81111561046b5761046a61040e565b5b61047784828501610418565b91505092915050565b600060a0828403121561049657610495610413565b5b81905092915050565b600073ffffffffffffffffffffffffffffffffffffffff82169050919050565b60006104ca8261049f565b9050919050565b6104da816104bf565b81146104e557600080fd5b50565b6000813590506104f7816104d1565b92915050565b600060ff82169050919050565b610513816104fd565b811461051e57600080fd5b50565b6000813590506105308161050a565b92915050565b60008060006060848603121561054f5761054e610409565b5b600084013567ffffffffffffffff81111561056d5761056c61040e565b5b61057986828701610480565b935050602061058a868287016104e8565b925050604061059b86828701610521565b9150509250925092565b60008115159050919050565b6105ba816105a5565b82525050565b60006020820190506105d560008301846105b1565b92915050565b6000602082840312156105f1576105f0610409565b5b600082013567ffffffffffffffff81111561060f5761060e61040e565b5b61061b84828501610480565b91505092915050565b600080fd5b600080fd5b600080fd5b60008083601f84011261064957610648610624565b5b8235905067ffffffffffffffff81111561066657610665610629565b5b6020830191508360608202830111156106825761068161062e565b5b9250929050565b6000806000604084860312156106a2576106a1610409565b5b600084013567ffffffffffffffff8111156106c0576106bf61040e565b5b6106cc86828701610633565b935093505060206106df86828701610521565b9150509250925092565b8082525050565b600080fd5b60008235600160a003833603038112610711576107106106f0565b5b82810191505092915050565b6000819050919050565b6107308161071d565b811461073b57600080fd5b50565b60008135905061074d81610727565b92915050565b6000610762602084018461073e565b905092915050565b6107738161071d565b82525050565b6000819050919050565b61078c81610779565b811461079757600080fd5b50565b6000813590506107a981610783565b92915050565b60006107be602084018461079a565b905092915050565b6107cf81610779565b82525050565b600080fd5b600080fd5b600080833560016020038436030381126107fc576107fb6106f0565b5b83810192508235915060208301925067ffffffffffffffff821115610824576108236107d5565b5b60018202360383131561083a576108396107da565b5b509250929050565b600082825260208201905092915050565b82818337600083830152505050565b6000601f19601f8301169050919050565b600061087f8385610842565b935061088c838584610853565b61089583610862565b840190509392505050565b600060a083016108b36000840184610753565b6108c0600086018261076a565b506108ce6020840184610753565b6108db602086018261076a565b506108e96040840184610753565b6108f6604086018261076a565b5061090460608401846107af565b61091160608601826107c6565b5061091f60808401846107df565b8583036080870152610932838284610873565b925050508091505092915050565b6000808335600160200384360303811261095d5761095c6106f0565b5b83810192508235915060208301925067ffffffffffffffff821115610985576109846107d5565b5b60208202360383131561099b5761099a6107da565b5b509250929050565b600082825260208201905092915050565b6000819050919050565b60006109cd60208401846104e8565b905092915050565b6109de816104bf565b82525050565b6000604083016109f760008401846109be565b610a0460008601826109d5565b50610a1260208401846107df565b8583036020870152610a25838284610873565b925050508091505092915050565b6000610a3f83836109e4565b905092915050565b600082356001604003833603038112610a6357610a626106f0565b5b82810191505092915050565b6000602082019050919050565b6000610a8883856109a3565b935083602084028501610a9a846109b4565b8060005b87811015610ade578484038952610ab58284610a47565b610abf8582610a33565b9450610aca83610a6f565b925060208a01995050600181019050610a9e565b50829750879450505050509392505050565b600060408301610b0360008401846106f5565b8482036000860152610b1582826108a0565b915050610b256020840184610940565b8583036020870152610b38838284610a7c565b925050508091505092915050565b6000604082019050610b5b60008301856106e9565b8181036020830152610b6d8184610af0565b90509392505050565b600060a08301610b896000840184610753565b610b96600086018261076a565b50610ba46020840184610753565b610bb1602086018261076a565b50610bbf6040840184610753565b610bcc604086018261076a565b50610bda60608401846107af565b610be760608601826107c6565b50610bf560808401846107df565b8583036080870152610c08838284610873565b925050508091505092915050565b610c1f816104bf565b82525050565b610c2e816104fd565b82525050565b6000608082019050610c4960008301876106e9565b8181036020830152610c5b8186610b76565b9050610c6a6040830185610c16565b610c776060830184610c25565b95945050505050565b610c89816105a5565b8114610c9457600080fd5b50565b600081519050610ca681610c80565b92915050565b600060208284031215610cc257610cc1610409565b5b6000610cd084828501610c97565b91505092915050565b6000604082019050610cee60008301856106e9565b8181036020830152610d008184610b76565b90509392505050565b600082825260208201905092915050565b6000819050919050565b60028110610d3157600080fd5b50565b600081359050610d4381610d24565b92915050565b6000610d586020840184610d34565b905092915050565b7f4e487b7100000000000000000000000000000000000000000000000000000000600052602160045260246000fd5b60028110610da057610d9f610d60565b5b50565b6000819050610db182610d8f565b919050565b6000610dc182610da3565b9050919050565b610dd181610db6565b82525050565b600082905092915050565b6000610df16020840184610521565b905092915050565b610e02816104fd565b82525050565b60408201610e1960008301836109be565b610e2660008501826109d5565b50610e346020830183610de2565b610e416020850182610df9565b50505050565b60608201610e586000830183610d49565b610e656000850182610dc8565b50610e736020830183610dd7565b610e806020850182610e08565b50505050565b6000610e928383610e47565b60608301905092915050565b600082905092915050565b6000606082019050919050565b6000610ec28385610d09565b9350610ecd82610d1a565b8060005b85811015610f0657610ee38284610e9e565b610eed8882610e86565b9750610ef883610ea9565b925050600181019050610ed1565b5085925050509392505050565b6000606082019050610f2860008301876106e9565b8181036020830152610f3b818587610eb6565b9050610f4a6040830184610c25565b9594505050505056fea264697066735822122002473d7ba8a738dc842acab90e71a92acda63ed2b48660f436ff30add852263964736f6c63430008110033",
  "linkReferences": {
    "contracts/FirmChainImpl.sol": {
      "FirmChainImpl": [
        {
          "length": 20,
          "start": 59
        },
        {
          "length": 20,
          "start": 3668
        },
        {
          "length": 20,
          "start": 3780
        },
        {
          "length": 20,
          "start": 3919
        },
        {
          "length": 20,
          "start": 4051
        },
        {
          "length": 20,
          "start": 4162
        },
        {
          "length": 20,
          "start": 4273
        }
      ]
    }
  },
  "deployedLinkReferences": {
    "contracts/FirmChainImpl.sol": {
      "FirmChainImpl": [
        {
          "length": 20,
          "start": 315
        },
        {
          "length": 20,
          "start": 427
        },
        {
          "length": 20,
          "start": 566
        },
        {
          "length": 20,
          "start": 698
        },
        {
          "length": 20,
          "start": 809
        },
        {
          "length": 20,
          "start": 920
        }
      ]
    }
  }
}